{"abi":[{"type":"function","name":"_msgSender","inputs":[],"outputs":[{"name":"sender","type":"address","internalType":"address"}],"stateMutability":"view"},{"type":"function","name":"_msgValue","inputs":[],"outputs":[{"name":"value","type":"uint256","internalType":"uint256"}],"stateMutability":"pure"},{"type":"function","name":"_world","inputs":[],"outputs":[{"name":"","type":"address","internalType":"address"}],"stateMutability":"view"},{"type":"function","name":"cancelPendingGame","inputs":[{"name":"gameId","type":"bytes32","internalType":"bytes32"}],"outputs":[],"stateMutability":"nonpayable"},{"type":"function","name":"claim","inputs":[{"name":"gameId","type":"bytes32","internalType":"bytes32"}],"outputs":[],"stateMutability":"nonpayable"},{"type":"function","name":"joinGame","inputs":[{"name":"gameId","type":"bytes32","internalType":"bytes32"}],"outputs":[],"stateMutability":"payable"},{"type":"function","name":"newGame","inputs":[{"name":"gameType","type":"uint8","internalType":"enum Game"},{"name":"submissionWindowSeconds","type":"uint32","internalType":"uint32"},{"name":"inviteExpirationTimestamp","type":"uint256","internalType":"uint256"},{"name":"puzzleMaster","type":"address","internalType":"address"},{"name":"opponent","type":"address","internalType":"address"}],"outputs":[],"stateMutability":"payable"},{"type":"function","name":"submitSolution","inputs":[{"name":"gameId","type":"bytes32","internalType":"bytes32"},{"name":"puzzleMasterSignature","type":"bytes","internalType":"bytes"}],"outputs":[],"stateMutability":"nonpayable"},{"type":"function","name":"supportsInterface","inputs":[{"name":"interfaceId","type":"bytes4","internalType":"bytes4"}],"outputs":[{"name":"","type":"bool","internalType":"bool"}],"stateMutability":"pure"},{"type":"function","name":"voteRematch","inputs":[{"name":"gameId","type":"bytes32","internalType":"bytes32"}],"outputs":[],"stateMutability":"nonpayable"},{"type":"event","name":"Store_SpliceStaticData","inputs":[{"name":"tableId","type":"bytes32","indexed":true,"internalType":"ResourceId"},{"name":"keyTuple","type":"bytes32[]","indexed":false,"internalType":"bytes32[]"},{"name":"start","type":"uint48","indexed":false,"internalType":"uint48"},{"name":"data","type":"bytes","indexed":false,"internalType":"bytes"}],"anonymous":false},{"type":"error","name":"Slice_OutOfBounds","inputs":[{"name":"data","type":"bytes","internalType":"bytes"},{"name":"start","type":"uint256","internalType":"uint256"},{"name":"end","type":"uint256","internalType":"uint256"}]},{"type":"error","name":"World_AccessDenied","inputs":[{"name":"resource","type":"string","internalType":"string"},{"name":"caller","type":"address","internalType":"address"}]},{"type":"error","name":"World_ResourceNotFound","inputs":[{"name":"resourceId","type":"bytes32","internalType":"ResourceId"},{"name":"resourceIdString","type":"string","internalType":"string"}]}],"bytecode":{"object":"0x608060405234801561001057600080fd5b50613960806100206000396000f3fe6080604052600436106100b15760003560e01c8063b49df3b911610069578063bf4747661161004e578063bf474766146101ba578063e1af802c146101cd578063f5382049146101e257600080fd5b8063b49df3b91461017a578063bd66528a1461019a57600080fd5b8063232328a11161009a578063232328a11461011857806345ec93541461013a57806356914caf1461015a57600080fd5b806301ffc9a7146100b6578063119df25f146100eb575b600080fd5b3480156100c257600080fd5b506100d66100d136600461325b565b6101f5565b60405190151581526020015b60405180910390f35b3480156100f757600080fd5b5061010061028e565b6040516001600160a01b0390911681526020016100e2565b34801561012457600080fd5b5061013861013336600461329d565b61029d565b005b34801561014657600080fd5b50604051601f1936013581526020016100e2565b34801561016657600080fd5b50610138610175366004613325565b610455565b34801561018657600080fd5b5061013861019536600461329d565b6106d4565b3480156101a657600080fd5b506101386101b536600461329d565b6107c4565b6101386101c836600461329d565b6108ba565b3480156101d957600080fd5b50610100610ae7565b6101386101f03660046133c6565b610af1565b60007fffffffff0000000000000000000000000000000000000000000000000000000082167fb5dee12700000000000000000000000000000000000000000000000000000000148061028857507fffffffff0000000000000000000000000000000000000000000000000000000082167f01ffc9a700000000000000000000000000000000000000000000000000000000145b92915050565b6000610298610b6b565b905090565b8060006102a861028e565b90506102b382610b9d565b6001600160a01b0316816001600160a01b031614806102eb57506102d682610c21565b6001600160a01b0316816001600160a01b0316145b61033c5760405162461bcd60e51b815260206004820152600f60248201527f4e6f742067616d6520706c61796572000000000000000000000000000000000060448201526064015b60405180910390fd5b600061034784610c9a565b9050600281600381111561035d5761035d613435565b146103aa5760405162461bcd60e51b815260206004820152601260248201527f47616d65206973206e6f742061637469766500000000000000000000000000006044820152606401610333565b6103bd846103b661028e565b6001610d33565b60006103c885610b9d565b905060006103d586610c21565b90506103e18683610dff565b80156103f257506103f28682610dff565b1561044d5761040386836000610eb9565b61040f86826000610eb9565b61041b86836000610d33565b61042786826000610d33565b6104448661043488610f68565b61043f906001613461565b611004565b61044d866110e6565b505050505050565b81600061046061028e565b905061046b82610b9d565b6001600160a01b0316816001600160a01b031614806104a3575061048e82610c21565b6001600160a01b0316816001600160a01b0316145b6104ef5760405162461bcd60e51b815260206004820152600f60248201527f4e6f742067616d6520706c6179657200000000000000000000000000000000006044820152606401610333565b60006104fa85610c9a565b90506000610507866110fb565b9050600061051487611197565b9050600073__$32c0c2a038f46e5d7ed59711600a1508d1$__631984979a8961053b61028e565b60016105468d611210565b8c6040518663ffffffff1660e01b81526004016105679594939291906134d3565b602060405180830381865af4158015610584573d6000803e3d6000fd5b505050506040513d601f19601f820116820180604052508101906105a8919061351c565b9050806105f75760405162461bcd60e51b815260206004820152601f60248201527f50757a7a6c65206d6173746572207369676e617475726520696e76616c6964006044820152606401610333565b600284600381111561060b5761060b613435565b146106585760405162461bcd60e51b815260206004820152601260248201527f47616d65206973206e6f742061637469766500000000000000000000000000006044820152606401610333565b61066863ffffffff84168361353e565b4211156106b75760405162461bcd60e51b815260206004820152601860248201527f5375626d697373696f6e2077696e646f7720636c6f73656400000000000000006044820152606401610333565b6106ca886106c361028e565b6001610eb9565b5050505050505050565b6106dd81610b9d565b6001600160a01b03166106ee61028e565b6001600160a01b0316146107445760405162461bcd60e51b815260206004820152601760248201527f4f6e6c792063726561746f722063616e2063616e63656c0000000000000000006044820152606401610333565b600161074f82610c9a565b600381111561076057610760613435565b146107ad5760405162461bcd60e51b815260206004820152601360248201527f47616d65206973206e6f742070656e64696e67000000000000000000000000006044820152606401610333565b6107b8816000611289565b6107c18161133e565b50565b8060006107cf61028e565b90506107da82610b9d565b6001600160a01b0316816001600160a01b0316148061081257506107fd82610c21565b6001600160a01b0316816001600160a01b0316145b61085e5760405162461bcd60e51b815260206004820152600f60248201527f4e6f742067616d6520706c6179657200000000000000000000000000000000006044820152606401610333565b600061086984610b9d565b9050600061087685610c21565b905061088061028e565b6001600160a01b0316826001600160a01b0316036108a8576108a385838361136e565b6108b3565b6108b385828461136e565b5050505050565b60006108c582610c9a565b905060006108d283610c21565b90506001600160a01b038116610975576108ea61028e565b6001600160a01b0316816001600160a01b0316146109705760405162461bcd60e51b815260206004820152602160248201527f596f7520617265206e6f74207468652073706563696669656420706c6179657260448201527f32000000000000000000000000000000000000000000000000000000000000006064820152608401610333565b610986565b6109868361098161028e565b61149e565b600061099184611550565b905060018360038111156109a7576109a7613435565b146109f45760405162461bcd60e51b815260206004820152601360248201527f47616d65206973206e6f742070656e64696e67000000000000000000000000006044820152606401610333565b426109fe856115c9565b11610a4b5760405162461bcd60e51b815260206004820152600e60248201527f496e7669746520657870697265640000000000000000000000000000000000006044820152606401610333565b8036601f1901351015610ac65760405162461bcd60e51b815260206004820152602160248201527f596f75206d757374206465706f73697420746f206a6f696e207468652067616d60448201527f65000000000000000000000000000000000000000000000000000000000000006064820152608401610333565b610ad884610ad261028e565b83611642565b610ae1846110e6565b50505050565b6000610298611709565b6000610afb61028e565b9050601f193601356000610b0d611713565b9050610b198189611818565b610b24816001611289565b610b2e818861188f565b610b38818761196c565b610b4281846119eb565b610b4c818561149e565b610b57818484611642565b610b618183611a80565b6106ca8186611aff565b7fffffffffffffffffffffffffffffffffffffffffffffffffffffffffffffffcc36013560601c80610b9a5750335b90565b604080516001808252818301909252600091829190602080830190803683370190505090508281600081518110610bd657610bd6613551565b60209081029190910101526000610c167f746267616d6573000000000000000000506c61796572310000000000000000008383630500400560da1b611b94565b60601c949350505050565b604080516001808252818301909252600091829190602080830190803683370190505090508281600081518110610c5a57610c5a613551565b60209081029190910101526000610c167f746267616d6573000000000000000000506c61796572320000000000000000008383630500400560da1b611b94565b604080516001808252818301909252600091829190602080830190803683370190505090508281600081518110610cd357610cd3613551565b60209081029190910101526000610d137f746267616d657300000000000000000047616d655374617475730000000000008383630101000160d81b611b94565b905060f881901c6003811115610d2b57610d2b613435565b949350505050565b6040805160028082526060820183526000926020830190803683370190505090508381600081518110610d6857610d68613551565b602002602001018181525050826001600160a01b031660001b81600181518110610d9457610d94613551565b602002602001018181525050610ae17f746267616d6573000000000000000000566f746552656d61746368000000000060001b82600085604051602001610de291151560f81b815260010190565b60408051601f19818403018152919052630101000160d81b611c51565b604080516002808252606082018352600092839291906020830190803683370190505090508381600081518110610e3857610e38613551565b602002602001018181525050826001600160a01b031660001b81600181518110610e6457610e64613551565b60209081029190910101526000610ea47f746267616d6573000000000000000000566f746552656d6174636800000000008383630101000160d81b611b94565b9050610eb08160f81c90565b95945050505050565b6040805160028082526060820183526000926020830190803683370190505090508381600081518110610eee57610eee613551565b602002602001018181525050826001600160a01b031660001b81600181518110610f1a57610f1a613551565b602002602001018181525050610ae17f746267616d6573000000000000000000536f6c7665640000000000000000000060001b82600085604051602001610de291151560f81b815260010190565b604080516001808252818301909252600091829190602080830190803683370190505090508281600081518110610fa157610fa1613551565b60209081029190910101526000610ff97f746267616d657300000000000000000052656d61746368436f756e740000000083837e02010002000000000000000000000000000000000000000000000000000000611b94565b60f01c949350505050565b60408051600180825281830190925260009160208083019080368337019050509050828160008151811061103a5761103a613551565b6020026020010181815250506110e17f746267616d657300000000000000000052656d61746368436f756e740000000060001b826000856040516020016110ac919060f09190911b7fffff00000000000000000000000000000000000000000000000000000000000016815260020190565b60408051601f198184030181529190527e02010002000000000000000000000000000000000000000000000000000000611c51565b505050565b6110f1816002611289565b6107c18142611d06565b60408051600180825281830190925260009182919060208083019080368337019050509050828160008151811061113457611134613551565b6020908102919091010152600061118c7f746267616d65730000000000000000005375626d697373696f6e57696e646f7783837e04010004000000000000000000000000000000000000000000000000000000611b94565b60e01c949350505050565b6040805160018082528183019092526000918291906020808301908036833701905050905082816000815181106111d0576111d0613551565b60209081029190910101526000610d2b7f746267616d657300000000000000000047616d65537461727454696d650000008383630100080160dd1b611b94565b60408051600180825281830190925260009182919060208083019080368337019050509050828160008151811061124957611249613551565b60209081029190910101526000610c167f746267616d657300000000000000000050757a7a6c654d6173746572456f61008383630500400560da1b611b94565b6040805160018082528183019092526000916020808301908036833701905050905082816000815181106112bf576112bf613551565b60209081029190910101526110e17f746267616d657300000000000000000047616d6553746174757300000000000082600085600381111561130357611303613435565b604051602001610de2919060f89190911b7fff0000000000000000000000000000000000000000000000000000000000000016815260010190565b600061134861028e565b905060006113568383611d85565b905061136483836000611642565b6110e18282611e2a565b600061137a8484611edc565b905060006113888584611edc565b90506000611395866110fb565b905060006113a287611197565b905060006113b663ffffffff84168361353e565b4211806113c857508480156113c85750835b9050806114175760405162461bcd60e51b815260206004820152600c60248201527f43616e6e6f7420636c61696d00000000000000000000000000000000000000006044820152606401610333565b838015611422575084155b1561146f5760405162461bcd60e51b815260206004820152601060248201527f4e6f7468696e6720746f20636c61696d000000000000000000000000000000006044820152606401610333565b84801561147a575083155b156114955761148a888888611f81565b6106ca886003611289565b61148a8861133e565b6040805160018082528183019092526000916020808301908036833701905050905082816000815181106114d4576114d4613551565b6020026020010181815250506110e17f746267616d6573000000000000000000506c617965723200000000000000000060001b82600085604051602001611533919060609190911b6bffffffffffffffffffffffff1916815260140190565b60408051601f19818403018152919052630500400560da1b611c51565b60408051600180825281830190925260009182919060208083019080368337019050509050828160008151811061158957611589613551565b60209081029190910101526000610d2b7f746267616d6573000000000000000000427579496e00000000000000000000008383630100080160dd1b611b94565b60408051600180825281830190925260009182919060208083019080368337019050509050828160008151811061160257611602613551565b60209081029190910101526000610d2b7f746267616d6573000000000000000000496e7669746545787069726174696f6e8383630100080160dd1b611b94565b604080516002808252606082018352600092602083019080368337019050509050838160008151811061167757611677613551565b602002602001018181525050826001600160a01b031660001b816001815181106116a3576116a3613551565b602002602001018181525050610ae17f746267616d657300000000000000000042616c616e636500000000000000000060001b826000856040516020016116ec91815260200190565b60408051601f19818403018152919052630100080160dd1b611c51565b6000610298611fc8565b604080517f737900000000000000000000000000000000000000000000000000000000000060208201527f756e69717565456e74697479000000000000000000000000000000000000000060228201527f73797374656d0000000000000000000000000000000000000000000000000000603082015260009161180591016040516020818303038152906040526117a990613567565b6040805160048152602481019091526020810180517bffffffffffffffffffffffffffffffffffffffffffffffffffffffff167f490923cd00000000000000000000000000000000000000000000000000000000179052612007565b806020019051810190610298919061358e565b60408051600180825281830190925260009160208083019080368337019050509050828160008151811061184e5761184e613551565b60209081029190910101526110e17f746267616d657300000000000000000047616d6554797065000000000000000082600085801561130357611303613435565b6040805160018082528183019092526000916020808301908036833701905050905082816000815181106118c5576118c5613551565b6020026020010181815250506110e17f746267616d65730000000000000000005375626d697373696f6e57696e646f7760001b82600085604051602001611937919060e09190911b7fffffffff0000000000000000000000000000000000000000000000000000000016815260040190565b60408051601f198184030181529190527e04010004000000000000000000000000000000000000000000000000000000611c51565b6040805160018082528183019092526000916020808301908036833701905050905082816000815181106119a2576119a2613551565b6020026020010181815250506110e17f746267616d6573000000000000000000496e7669746545787069726174696f6e60001b826000856040516020016116ec91815260200190565b604080516001808252818301909252600091602080830190803683370190505090508281600081518110611a2157611a21613551565b6020026020010181815250506110e17f746267616d6573000000000000000000506c617965723100000000000000000060001b82600085604051602001611533919060609190911b6bffffffffffffffffffffffff1916815260140190565b604080516001808252818301909252600091602080830190803683370190505090508281600081518110611ab657611ab6613551565b6020026020010181815250506110e17f746267616d6573000000000000000000427579496e000000000000000000000060001b826000856040516020016116ec91815260200190565b604080516001808252818301909252600091602080830190803683370190505090508281600081518110611b3557611b35613551565b6020026020010181815250506110e17f746267616d657300000000000000000050757a7a6c654d6173746572456f610060001b82600085604051602001611533919060609190911b6bffffffffffffffffffffffff1916815260140190565b600080611b9f611fc8565b9050306001600160a01b03821603611bc557611bbd868686866120e2565b915050610d2b565b6040517f8c364d590000000000000000000000000000000000000000000000000000000081526001600160a01b03821690638c364d5990611c109089908990899089906004016135e3565b602060405180830381865afa158015611c2d573d6000803e3d6000fd5b505050506040513d601f19601f82011682018060405250810190611bbd919061358e565b6000611c5b611fc8565b9050306001600160a01b03821603611c7f57611c7a868686868661210f565b61044d565b6040517f390baae00000000000000000000000000000000000000000000000000000000081526001600160a01b0382169063390baae090611ccc9089908990899089908990600401613612565b600060405180830381600087803b158015611ce657600080fd5b505af1158015611cfa573d6000803e3d6000fd5b50505050505050505050565b604080516001808252818301909252600091602080830190803683370190505090508281600081518110611d3c57611d3c613551565b6020026020010181815250506110e17f746267616d657300000000000000000047616d65537461727454696d6500000060001b826000856040516020016116ec91815260200190565b604080516002808252606082018352600092839291906020830190803683370190505090508381600081518110611dbe57611dbe613551565b602002602001018181525050826001600160a01b031660001b81600181518110611dea57611dea613551565b60209081029190910101526000610eb07f746267616d657300000000000000000042616c616e63650000000000000000008383630100080160dd1b611b94565b611e32610ae7565b6001600160a01b03166345afd1997f6e7367616d6573000000000000000000000000000000000000000000000000006040517fffffffff0000000000000000000000000000000000000000000000000000000060e084901b16815260048101919091526001600160a01b038516602482015260448101849052606401600060405180830381600087803b158015611ec857600080fd5b505af115801561044d573d6000803e3d6000fd5b604080516002808252606082018352600092839291906020830190803683370190505090508381600081518110611f1557611f15613551565b602002602001018181525050826001600160a01b031660001b81600181518110611f4157611f41613551565b60209081029190910101526000610ea47f746267616d6573000000000000000000536f6c766564000000000000000000008383630101000160d81b611b94565b6000611f8d8484611d85565b90506000611f9b8584611d85565b9050611fa985856000611642565b611fb585846000611642565b6108b384611fc3838561353e565b611e2a565b7f629a4c26e296b22a8e0856e9f6ecb2d1008d7e00081111962cd175fa7488e175546000906001600160a01b031680612002573391505090565b919050565b60606000612013611709565b90506001600160a01b038116300361205457600061203b612032610b6b565b60008787612124565b935090508061204d5761204d8361225f565b5050610288565b6040517f3ae7af080000000000000000000000000000000000000000000000000000000081526001600160a01b03821690633ae7af089061209b9087908790600401613659565b6000604051808303816000875af11580156120ba573d6000803e3d6000fd5b505050506040513d6000823e601f3d908101601f19168201604052610d2b9190810190613672565b6000610eb06120f18686612267565b60ff858116601b0360080285901c1661210a85876122bd565b6122f6565b6108b3858561211e84876122bd565b85612347565b60006060600080612134866125eb565b90925090506001600160a01b0382166121855785612151876126a3565b6040517ffbf10ce6000000000000000000000000000000000000000000000000000000008152600401610333929190613659565b806121945761219486896127e0565b8615612200577dffffffffffffffffffffffffffff0000000000000000000000000000000086167f6e730000000000000000000000000000000000000000000000000000000000001760006121e882612830565b90506121fd826121f88b8461353e565b6128a9565b50505b600061220c8760101b90565b7fffffffffffffffffffffffffffff00000000000000000000000000000000000016146122445761223f88888488612945565b612250565b612250888884886129bd565b90999098509650505050505050565b805160208201fd5b6000828260405160200161227c9291906136e0565b60408051601f1981840301815291905280516020909101207f86425bff6b57326c7859e89024fe4f238ca327a1ae4a230180dd2f0e88aaa7d9189392505050565b600080805b8360ff168110156122ee576122e460ff601b83900360080287901c168361353e565b91506001016122c2565b509392505050565b60006020821061231c576020820484019350602082816123185761231861371c565b0691505b508254600882021b6020829003808411156122ee576001850154600882021c82179150509392505050565b7f6f74000000000000000000000000000000000000000000000000000000000000847fffff00000000000000000000000000000000000000000000000000000000000016036123d157837f8c0b5119d4cec7b284c6b1b39252a03d1e2f2d7451a5895562524c113bb952be8484846040516123c493929190613732565b60405180910390a2610ae1565b60006123dd8585612267565b905060006123ea86612a1e565b905060005b81518110156124bf57600082828151811061240c5761240c613551565b602002602001015190506124386004826affffffffffffffffffffff1916612aa790919063ffffffff16565b156124b6576040517f964f667d000000000000000000000000000000000000000000000000000000008152606082901c9063964f667d90612483908b908b908b908b9060040161376f565b600060405180830381600087803b15801561249d57600080fd5b505af11580156124b1573d6000803e3d6000fd5b505050505b506001016123ef565b50857f8c0b5119d4cec7b284c6b1b39252a03d1e2f2d7451a5895562524c113bb952be8686866040516124f493929190613732565b60405180910390a261250f828565ffffffffffff1685612ac5565b60005b81518110156125e257600082828151811061252f5761252f613551565b6020026020010151905061255b6008826affffffffffffffffffffff1916612aa790919063ffffffff16565b156125d9576040517fa8ba8721000000000000000000000000000000000000000000000000000000008152606082901c9063a8ba8721906125a6908b908b908b908b9060040161376f565b600060405180830381600087803b1580156125c057600080fd5b505af11580156125d4573d6000803e3d6000fd5b505050505b50600101612512565b50505050505050565b6040805160018082528183019092526000918291829160208083019080368337019050509050838160008151811061262557612625613551565b60209081029190910101526000808061267e7f7462776f726c6400000000000000000053797374656d73000000000000000000857e15020014010000000000000000000000000000000000000000000000000000612adb565b5050602081015160349091015160609190911c9860f89190911c975095505050505050565b606081601081901b60006126b683612be3565b9050827fffffffffffffffffffffffffffff0000000000000000000000000000000000008316156127115761270c7fffffffffffffffffffffffffffff0000000000000000000000000000000000008416612bfa565b612748565b6040518060400160405280600681526020017f3c726f6f743e00000000000000000000000000000000000000000000000000008152505b7fffffffffffffffffffffffffffffffff0000000000000000000000000000000083161561277e5761277983612bfa565b6127b5565b6040518060400160405280600681526020017f3c726f6f743e00000000000000000000000000000000000000000000000000008152505b6040516020016127c7939291906137a8565b6040516020818303038152906040529350505050919050565b6127ea8282612c9e565b61282c576127f7826126a3565b816040517fd787b737000000000000000000000000000000000000000000000000000000008152600401610333929190613836565b5050565b60408051600180825281830190925260009182919060208083019080368337019050509050828160008151811061286957612869613551565b60209081029190910101526000610d2b7f7462776f726c6400000000000000000042616c616e63657300000000000000008383630100080160dd1b6120e2565b6040805160018082528183019092526000916020808301908036833701905050905082816000815181106128df576128df613551565b6020026020010181815250506110e17f7462776f726c6400000000000000000042616c616e636573000000000000000060001b8260008560405160200161292891815260200190565b60408051601f19818403018152919052630100080160dd1b61210f565b60006060836001600160a01b03166000612960858989612d03565b60405161296d9190613861565b60006040518083038185875af1925050503d80600081146129aa576040519150601f19603f3d011682016040523d82523d6000602084013e6129af565b606091505b509097909650945050505050565b60006060836001600160a01b03166129d6848888612d03565b6040516129e39190613861565b600060405180830381855af49150503d80600081146129aa576040519150601f19603f3d011682016040523d82523d6000602084013e6129af565b60408051600180825281830190925260609160009190602080830190803683370190505090508281600081518110612a5857612a58613551565b60209081029190910101526000612a907f746273746f726500000000000000000053746f7265486f6f6b730000000000008383612d32565b9050610d2b612aa28260008451612d6c565b612dfa565b60008160ff1682612ab88560581c90565b1660ff1614905092915050565b6110e183838351612ad68560200190565b612e0b565b6060600060606000612aec85612eca565b9050612af9878783612eed565b93506000612b0686612f26565b90508015612bd857612b188888612f63565b935066ffffffffffffff841667ffffffffffffffff811115612b3c57612b3c6132b6565b6040519080825280601f01601f191660200182016040528015612b66576020820181803683370190505b5092506020830160005b828160ff161015612bd5576000612b888b8b84612f76565b90506000612ba5888460ff166028026038011c64ffffffffff1690565b9050612bb48260008387612ff6565b612bbe818561353e565b935050508080612bcd9061387d565b915050612b70565b50505b505093509350939050565b6000612bf16070601061353e565b9190911b919050565b606060005b6010811015612c5f577fffffffffffffffffffffffffffffffff000000000000000000000000000000008316600882021b7fff000000000000000000000000000000000000000000000000000000000000001615612c5f57600101612bff565b604080517fffffffffffffffffffffffffffffffff00000000000000000000000000000000851660208201528151603090910190915281815280610d2b565b6000612cec7f6e730000000000000000000000000000000000000000000000000000000000007dffffffffffffffffffffffffffff00000000000000000000000000000000851617836130c2565b80612cfc5750612cfc83836130c2565b9392505050565b6060838383604051602001612d1a9392919061389c565b60405160208183030381529060405290509392505050565b6060610d2b612d42858585612f76565b6000612d6785612d528989612f63565b9060ff166028026038011c64ffffffffff1690565b613167565b600081831180612d7c5750835182115b15612db9578383836040517f23230fa3000000000000000000000000000000000000000000000000000000008152600401610333939291906138db565b60208401612dc7848261353e565b90506000612dd58585613900565b6fffffffffffffffffffffffffffffffff1660809290921b9190911795945050505050565b60606000612cfc836015600061318a565b8215612e855760208310612e3557602083048401935060208381612e3157612e3161371c565b0692505b8215612e855760208390036000600019600885021c1990506008850281811c91508351811c9050811987541682821617875550818411612e76575050610ae1565b50600194909401939182900391015b5b60208210612ea75780518455600190930192601f1990910190602001612e86565b8115610ae1576000600019600884021c8554835182191691161785555050505050565b60006008612eda60026020613900565b612ee49190613913565b9190911c919050565b606081600003612f0c5750604080516020810190915260008152612cfc565b6000612f188585612267565b9050610eb081600085613167565b60006008600180612f3960026020613900565b612f439190613900565b612f4d9190613900565b612f579190613913565b8260ff911c1692915050565b6000612cfc612f728484613205565b5490565b60008383604051602001612f8b9291906136e0565b604051602081830303815290604052805190602001208260f81b7effffffffffffffffffffffffffffffffffffffffffffffffffffffffffffff19167f3b4102da22e32d82fc925482184f16c09fd4281692720b87d124aef6da48a0f1181860001c90509392505050565b821561307d57602083106130205760208304840193506020838161301c5761301c61371c565b0692505b821561307d5760208390036000818410156130435750600019600884021c61304d565b50600019600882021c5b8554600886021b81845116821982161784525081841161306e575050610ae1565b50600194909401939182900391015b5b6020821061309f5783548152600190930192601f199091019060200161307e565b8115610ae1576000600019600884021c8251865482191691161782525050505050565b6040805160028082526060820183526000928392919060208301908036833701905050905083816000815181106130fb576130fb613551565b602002602001018181525050826001600160a01b031660001b8160018151811061312757613127613551565b60209081029190910101526000610ea47f7462776f726c640000000000000000005265736f7572636541636365737300008383630101000160d81b6120e2565b60405160208101601f19603f84840101166040528282526122ee85858584612ff6565b606060006131988560801c90565b90506fffffffffffffffffffffffffffffffff851660008582816131be576131be61371c565b04905060405193506020840160208202810160405281855260005b828110156131f9578451871c8252938701936020909101906001016131d9565b50505050509392505050565b6000828260405160200161321a9291906136e0565b60408051601f1981840301815291905280516020909101207f14e2fcc58e58e68ec7edc30c8d50dccc3ce2714a623ec81f46b6a63922d76569189392505050565b60006020828403121561326d57600080fd5b81357fffffffff0000000000000000000000000000000000000000000000000000000081168114612cfc57600080fd5b6000602082840312156132af57600080fd5b5035919050565b634e487b7160e01b600052604160045260246000fd5b604051601f8201601f1916810167ffffffffffffffff811182821017156132f5576132f56132b6565b604052919050565b600067ffffffffffffffff821115613317576133176132b6565b50601f01601f191660200190565b6000806040838503121561333857600080fd5b82359150602083013567ffffffffffffffff81111561335657600080fd5b8301601f8101851361336757600080fd5b803561337a613375826132fd565b6132cc565b81815286602083850101111561338f57600080fd5b816020840160208301376000602083830101528093505050509250929050565b80356001600160a01b038116811461200257600080fd5b600080600080600060a086880312156133de57600080fd5b8535600181106133ed57600080fd5b9450602086013563ffffffff8116811461340657600080fd5b93506040860135925061341b606087016133af565b9150613429608087016133af565b90509295509295909350565b634e487b7160e01b600052602160045260246000fd5b634e487b7160e01b600052601160045260246000fd5b61ffff81811683821601908082111561347c5761347c61344b565b5092915050565b60005b8381101561349e578181015183820152602001613486565b50506000910152565b600081518084526134bf816020860160208601613483565b601f01601f19169290920160200192915050565b85815260006001600160a01b03808716602084015263ffffffff8616604084015280851660608401525060a0608083015261351160a08301846134a7565b979650505050505050565b60006020828403121561352e57600080fd5b81518015158114612cfc57600080fd5b808201808211156102885761028861344b565b634e487b7160e01b600052603260045260246000fd5b80516020808301519190811015613588576000198160200360031b1b821691505b50919050565b6000602082840312156135a057600080fd5b5051919050565b60008151808452602080850194506020840160005b838110156135d8578151875295820195908201906001016135bc565b509495945050505050565b8481526080602082015260006135fc60808301866135a7565b60ff949094166040830152506060015292915050565b85815260a06020820152600061362b60a08301876135a7565b60ff86166040840152828103606084015261364681866134a7565b9150508260808301529695505050505050565b828152604060208201526000610d2b60408301846134a7565b60006020828403121561368457600080fd5b815167ffffffffffffffff81111561369b57600080fd5b8201601f810184136136ac57600080fd5b80516136ba613375826132fd565b8181528560208385010111156136cf57600080fd5b610eb0826020830160208601613483565b8281526000602080830184516020860160005b8281101561370f578151845292840192908401906001016136f3565b5091979650505050505050565b634e487b7160e01b600052601260045260246000fd5b60608152600061374560608301866135a7565b65ffffffffffff85166020840152828103604084015261376581856134a7565b9695505050505050565b84815260806020820152600061378860808301866135a7565b65ffffffffffff85166040840152828103606084015261351181856134a7565b7fffff0000000000000000000000000000000000000000000000000000000000008416815260007f3a000000000000000000000000000000000000000000000000000000000000008060028401528451613809816003860160208901613483565b808401905081600382015284519150613829826004830160208801613483565b0160040195945050505050565b60408152600061384960408301856134a7565b90506001600160a01b03831660208301529392505050565b60008251613873818460208701613483565b9190910192915050565b600060ff821660ff81036138935761389361344b565b60010192915050565b600084516138ae818460208901613483565b60609490941b6bffffffffffffffffffffffff191691909301908152601481019190915260340192915050565b6060815260006138ee60608301866134a7565b60208301949094525060400152919050565b818103818111156102885761028861344b565b80820281158282048414176102885761028861344b56fea264697066735822122012ae29682edc06f4505c2ca45e54e80c403871192883b003f215d765f8bc662464736f6c63430008180033","linkReferences":{"src/library/SolutionVerification.sol":{"SolutionVerificationLib":[{"start":1338,"length":20}]}}},"methodIdentifiers":{"_msgSender()":"119df25f","_msgValue()":"45ec9354","_world()":"e1af802c","cancelPendingGame(bytes32)":"b49df3b9","claim(bytes32)":"bd66528a","joinGame(bytes32)":"bf474766","newGame(uint8,uint32,uint256,address,address)":"f5382049","submitSolution(bytes32,bytes)":"56914caf","supportsInterface(bytes4)":"01ffc9a7","voteRematch(bytes32)":"232328a1"},"id":107}