{"abi":[{"type":"function","name":"_msgSender","inputs":[],"outputs":[{"name":"sender","type":"address","internalType":"address"}],"stateMutability":"view"},{"type":"function","name":"_msgValue","inputs":[],"outputs":[{"name":"value","type":"uint256","internalType":"uint256"}],"stateMutability":"pure"},{"type":"function","name":"_world","inputs":[],"outputs":[{"name":"","type":"address","internalType":"address"}],"stateMutability":"view"},{"type":"function","name":"cancelPendingGame","inputs":[{"name":"gameId","type":"bytes32","internalType":"bytes32"}],"outputs":[],"stateMutability":"nonpayable"},{"type":"function","name":"claim","inputs":[{"name":"gameId","type":"bytes32","internalType":"bytes32"}],"outputs":[],"stateMutability":"nonpayable"},{"type":"function","name":"joinGame","inputs":[{"name":"gameId","type":"bytes32","internalType":"bytes32"}],"outputs":[],"stateMutability":"payable"},{"type":"function","name":"newGame","inputs":[{"name":"gameType","type":"uint8","internalType":"enum Game"},{"name":"submissionWindowSeconds","type":"uint32","internalType":"uint32"},{"name":"inviteExpirationTimestamp","type":"uint256","internalType":"uint256"}],"outputs":[],"stateMutability":"payable"},{"type":"function","name":"submitSolution","inputs":[{"name":"gameId","type":"bytes32","internalType":"bytes32"}],"outputs":[],"stateMutability":"nonpayable"},{"type":"function","name":"supportsInterface","inputs":[{"name":"interfaceId","type":"bytes4","internalType":"bytes4"}],"outputs":[{"name":"","type":"bool","internalType":"bool"}],"stateMutability":"pure"},{"type":"function","name":"voteRematch","inputs":[{"name":"gameId","type":"bytes32","internalType":"bytes32"}],"outputs":[],"stateMutability":"nonpayable"},{"type":"event","name":"Store_SpliceStaticData","inputs":[{"name":"tableId","type":"bytes32","indexed":true,"internalType":"ResourceId"},{"name":"keyTuple","type":"bytes32[]","indexed":false,"internalType":"bytes32[]"},{"name":"start","type":"uint48","indexed":false,"internalType":"uint48"},{"name":"data","type":"bytes","indexed":false,"internalType":"bytes"}],"anonymous":false},{"type":"error","name":"Slice_OutOfBounds","inputs":[{"name":"data","type":"bytes","internalType":"bytes"},{"name":"start","type":"uint256","internalType":"uint256"},{"name":"end","type":"uint256","internalType":"uint256"}]},{"type":"error","name":"World_ResourceNotFound","inputs":[{"name":"resourceId","type":"bytes32","internalType":"ResourceId"},{"name":"resourceIdString","type":"string","internalType":"string"}]}],"bytecode":{"object":"0x608060405234801561001057600080fd5b5061385c806100206000396000f3fe6080604052600436106100b15760003560e01c8063bd66528a11610069578063dc1743fa1161004e578063dc1743fa146101ad578063e1af802c146101cd578063eb2098e2146101e257600080fd5b8063bd66528a1461017a578063bf4747661461019a57600080fd5b8063232328a11161009a578063232328a11461011857806345ec93541461013a578063b49df3b91461015a57600080fd5b806301ffc9a7146100b6578063119df25f146100eb575b600080fd5b3480156100c257600080fd5b506100d66100d136600461320f565b6101f5565b60405190151581526020015b60405180910390f35b3480156100f757600080fd5b5061010061028e565b6040516001600160a01b0390911681526020016100e2565b34801561012457600080fd5b50610138610133366004613251565b61029d565b005b34801561014657600080fd5b50604051601f1936013581526020016100e2565b34801561016657600080fd5b50610138610175366004613251565b610455565b34801561018657600080fd5b50610138610195366004613251565b610545565b6101386101a8366004613251565b61063b565b3480156101b957600080fd5b506101386101c8366004613251565b6107b9565b3480156101d957600080fd5b5061010061094d565b6101386101f036600461326a565b610957565b60007fffffffff0000000000000000000000000000000000000000000000000000000082167fb5dee12700000000000000000000000000000000000000000000000000000000148061028857507fffffffff0000000000000000000000000000000000000000000000000000000082167f01ffc9a700000000000000000000000000000000000000000000000000000000145b92915050565b60006102986109bd565b905090565b8060006102a861028e565b90506102b3826109ef565b6001600160a01b0316816001600160a01b031614806102eb57506102d682610ad0565b6001600160a01b0316816001600160a01b0316145b61033c5760405162461bcd60e51b815260206004820152600f60248201527f4e6f742067616d6520706c61796572000000000000000000000000000000000060448201526064015b60405180910390fd5b600061034784610b6a565b9050600281600381111561035d5761035d6132b8565b146103aa5760405162461bcd60e51b815260206004820152601260248201527f47616d65206973206e6f742061637469766500000000000000000000000000006044820152606401610333565b6103bd846103b661028e565b6001610c60565b60006103c8856109ef565b905060006103d586610ad0565b90506103e18683610d89565b80156103f257506103f28682610d89565b1561044d5761040386836000610e64565b61040f86826000610e64565b61041b86836000610c60565b61042786826000610c60565b6104448661043488610f23565b61043f9060016132e4565b610ffe565b61044d8661110c565b505050505050565b61045e816109ef565b6001600160a01b031661046f61028e565b6001600160a01b0316146104c55760405162461bcd60e51b815260206004820152601760248201527f4f6e6c792063726561746f722063616e2063616e63656c0000000000000000006044820152606401610333565b60016104d082610b6a565b60038111156104e1576104e16132b8565b1461052e5760405162461bcd60e51b815260206004820152601360248201527f47616d65206973206e6f742070656e64696e67000000000000000000000000006044820152606401610333565b610539816000611121565b61054281611213565b50565b80600061055061028e565b905061055b826109ef565b6001600160a01b0316816001600160a01b03161480610593575061057e82610ad0565b6001600160a01b0316816001600160a01b0316145b6105df5760405162461bcd60e51b815260206004820152600f60248201527f4e6f742067616d6520706c6179657200000000000000000000000000000000006044820152606401610333565b60006105ea846109ef565b905060006105f785610ad0565b905061060161028e565b6001600160a01b0316826001600160a01b03160361062957610624858383611243565b610634565b610634858284611243565b5050505050565b600061064682610b6a565b905060006106538361137d565b90506001826003811115610669576106696132b8565b146106b65760405162461bcd60e51b815260206004820152601360248201527f47616d65206973206e6f742070656e64696e67000000000000000000000000006044820152606401610333565b426106c084611453565b1161070d5760405162461bcd60e51b815260206004820152600e60248201527f496e7669746520657870697265640000000000000000000000000000000000006044820152606401610333565b8036601f19013510156107885760405162461bcd60e51b815260206004820152602160248201527f596f75206d757374206465706f73697420746f206a6f696e207468652067616d60448201527f65000000000000000000000000000000000000000000000000000000000000006064820152608401610333565b61079a8361079461028e565b836114ed565b6107ab836107a661028e565b61160b565b6107b48361110c565b505050565b8060006107c461028e565b90506107cf826109ef565b6001600160a01b0316816001600160a01b0316148061080757506107f282610ad0565b6001600160a01b0316816001600160a01b0316145b6108535760405162461bcd60e51b815260206004820152600f60248201527f4e6f742067616d6520706c6179657200000000000000000000000000000000006044820152606401610333565b600061085e84610b6a565b9050600061086b8561171f565b90506000610878866117fa565b9050600283600381111561088e5761088e6132b8565b146108db5760405162461bcd60e51b815260206004820152601260248201527f47616d65206973206e6f742061637469766500000000000000000000000000006044820152606401610333565b6108eb63ffffffff831682613306565b42111561093a5760405162461bcd60e51b815260206004820152601860248201527f5375626d697373696f6e2077696e646f7720636c6f73656400000000000000006044820152606401610333565b61044d8661094661028e565b6001610e64565b6000610298611894565b600061096161028e565b9050601f19360135600061097361189e565b905061097f81876119a3565b61098a816001611121565b6109948186611a57565b61099e8185611b65565b6109a88184611bf9565b6109b38184846114ed565b61044d8183611c8d565b7fffffffffffffffffffffffffffffffffffffffffffffffffffffffffffffffcc36013560601c806109ec5750335b90565b604080516001808252818301909252600091829190602080830190803683370190505090508281600081518110610a2857610a2861332f565b60209081029190910181019190915260408051613a3160f11b928101929092526467616d657360d81b60228301527f506c6179657231000000000000000000000000000000000000000000000000006030830152600091610ac591015b604051602081830303815290604052610a9d90613345565b8360007e14010014000000000000000000000000000000000000000000000000000000611d21565b60601c949350505050565b604080516001808252818301909252600091829190602080830190803683370190505090508281600081518110610b0957610b0961332f565b60209081029190910181019190915260408051613a3160f11b928101929092526467616d657360d81b60228301527f506c6179657232000000000000000000000000000000000000000000000000006030830152600091610ac59101610a85565b604080516001808252818301909252600091829190602080830190803683370190505090508281600081518110610ba357610ba361332f565b60209081029190910181019190915260408051613a3160f11b928101929092526467616d657360d81b60228301527f47616d65537461747573000000000000000000000000000000000000000000006030830152600091610c4091015b604051602081830303815290604052610c1890613345565b8360007e01010001000000000000000000000000000000000000000000000000000000611d21565b905060f881901c6003811115610c5857610c586132b8565b949350505050565b6040805160028082526060820183526000926020830190803683370190505090508381600081518110610c9557610c9561332f565b602002602001018181525050826001600160a01b031660001b81600181518110610cc157610cc161332f565b60209081029190910181019190915260408051613a3160f11b928101929092526467616d657360d81b60228301527f566f746552656d617463680000000000000000000000000000000000000000006030830152610d8391015b604051602081830303815290604052610d3390613345565b82600085604051602001610d4e91151560f81b815260010190565b60408051601f198184030181529190527e01010001000000000000000000000000000000000000000000000000000000611dde565b50505050565b604080516002808252606082018352600092839291906020830190803683370190505090508381600081518110610dc257610dc261332f565b602002602001018181525050826001600160a01b031660001b81600181518110610dee57610dee61332f565b60209081029190910181019190915260408051613a3160f11b928101929092526467616d657360d81b60228301527f566f746552656d617463680000000000000000000000000000000000000000006030830152600091610e4f9101610c00565b9050610e5b8160f81c90565b95945050505050565b6040805160028082526060820183526000926020830190803683370190505090508381600081518110610e9957610e9961332f565b602002602001018181525050826001600160a01b031660001b81600181518110610ec557610ec561332f565b60209081029190910181019190915260408051613a3160f11b928101929092526467616d657360d81b60228301527f536f6c76656400000000000000000000000000000000000000000000000000006030830152610d839101610d1b565b604080516001808252818301909252600091829190602080830190803683370190505090508281600081518110610f5c57610f5c61332f565b60209081029190910181019190915260408051613a3160f11b818401526467616d657360d81b60228201527f52656d61746368436f756e74000000000000000000000000000000000000000060308201528151808203909301835281019052600090610ff390610fcb90613345565b8360007e02010002000000000000000000000000000000000000000000000000000000611d21565b60f01c949350505050565b6040805160018082528183019092526000916020808301908036833701905050905082816000815181106110345761103461332f565b60209081029190910181019190915260408051613a3160f11b818401526467616d657360d81b60228201527f52656d61746368436f756e740000000000000000000000000000000000000000603082015281518082039093018352810190526107b4906110a090613345565b6040517fffff00000000000000000000000000000000000000000000000000000000000060f086901b166020820152839060009060220160408051601f198184030181529190527e02010002000000000000000000000000000000000000000000000000000000611dde565b611117816002611121565b6105428142611e93565b6040805160018082528183019092526000916020808301908036833701905050905082816000815181106111575761115761332f565b60209081029190910181019190915260408051613a3160f11b818401526467616d657360d81b60228201527f47616d6553746174757300000000000000000000000000000000000000000000603082015281518082039093018352810190526107b4906111c390613345565b8260008560038111156111d8576111d86132b8565b604051602001610d4e919060f89190911b7fff0000000000000000000000000000000000000000000000000000000000000016815260010190565b600061121d61028e565b9050600061122b8383611f27565b9050611239838360006114ed565b6107b48282611fed565b600061124f848461209f565b9050600061125d858461209f565b9050600061126a8661171f565b90506000611277876117fa565b9050600061128b63ffffffff841683613306565b42118061129d575084801561129d5750835b9050806112ec5760405162461bcd60e51b815260206004820152600c60248201527f43616e6e6f7420636c61696d00000000000000000000000000000000000000006044820152606401610333565b8380156112f7575084155b156113445760405162461bcd60e51b815260206004820152601060248201527f4e6f7468696e6720746f20636c61696d000000000000000000000000000000006044820152606401610333565b84801561134f575083155b156113745761135f888888612165565b61136a886003611121565b5050505050505050565b61135f88611213565b6040805160018082528183019092526000918291906020808301908036833701905050905082816000815181106113b6576113b661332f565b60209081029190910181019190915260408051613a3160f11b928101929092526467616d657360d81b60228301527f427579496e0000000000000000000000000000000000000000000000000000006030830152600091610c5891015b60405160208183030381529060405261142b90613345565b8360007e20010020000000000000000000000000000000000000000000000000000000611d21565b60408051600180825281830190925260009182919060208083019080368337019050509050828160008151811061148c5761148c61332f565b60209081029190910181019190915260408051613a3160f11b928101929092526467616d657360d81b60228301527f496e7669746545787069726174696f6e000000000000000000000000000000006030830152600091610c589101611413565b60408051600280825260608201835260009260208301908036833701905050905083816000815181106115225761152261332f565b602002602001018181525050826001600160a01b031660001b8160018151811061154e5761154e61332f565b60209081029190910181019190915260408051613a3160f11b928101929092526467616d657360d81b60228301527f42616c616e6365000000000000000000000000000000000000000000000000006030830152610d8391015b6040516020818303038152906040526115c090613345565b826000856040516020016115d691815260200190565b60408051601f198184030181529190527e20010020000000000000000000000000000000000000000000000000000000611dde565b6040805160018082528183019092526000916020808301908036833701905050905082816000815181106116415761164161332f565b60209081029190910181019190915260408051613a3160f11b928101929092526467616d657360d81b60228301527f506c61796572320000000000000000000000000000000000000000000000000060308301526107b491015b6040516020818303038152906040526116b390613345565b6040517fffffffffffffffffffffffffffffffffffffffff000000000000000000000000606086901b166020820152839060009060340160408051601f198184030181529190527e14010014000000000000000000000000000000000000000000000000000000611dde565b6040805160018082528183019092526000918291906020808301908036833701905050905082816000815181106117585761175861332f565b60209081029190910181019190915260408051613a3160f11b818401526467616d657360d81b60228201527f5375626d697373696f6e57696e646f7700000000000000000000000000000000603082015281518082039093018352810190526000906117ef906117c790613345565b8360007e04010004000000000000000000000000000000000000000000000000000000611d21565b60e01c949350505050565b6040805160018082528183019092526000918291906020808301908036833701905050905082816000815181106118335761183361332f565b60209081029190910181019190915260408051613a3160f11b928101929092526467616d657360d81b60228301527f47616d65537461727454696d65000000000000000000000000000000000000006030830152600091610c589101611413565b60006102986121ac565b604080517f737900000000000000000000000000000000000000000000000000000000000060208201527f756e69717565456e74697479000000000000000000000000000000000000000060228201527f73797374656d00000000000000000000000000000000000000000000000000006030820152600091611990910160405160208183030381529060405261193490613345565b6040805160048152602481019091526020810180517bffffffffffffffffffffffffffffffffffffffffffffffffffffffff167f490923cd000000000000000000000000000000000000000000000000000000001790526121eb565b806020019051810190610298919061336c565b6040805160018082528183019092526000916020808301908036833701905050905082816000815181106119d9576119d961332f565b60209081029190910181019190915260408051613a3160f11b818401526467616d657360d81b60228201527f47616d6554797065000000000000000000000000000000000000000000000000603082015281518082039093018352810190526107b490611a4590613345565b8260008580156111d8576111d86132b8565b604080516001808252818301909252600091602080830190803683370190505090508281600081518110611a8d57611a8d61332f565b60209081029190910181019190915260408051613a3160f11b818401526467616d657360d81b60228201527f5375626d697373696f6e57696e646f7700000000000000000000000000000000603082015281518082039093018352810190526107b490611af990613345565b6040517fffffffff0000000000000000000000000000000000000000000000000000000060e086901b166020820152839060009060240160408051601f198184030181529190527e04010004000000000000000000000000000000000000000000000000000000611dde565b604080516001808252818301909252600091602080830190803683370190505090508281600081518110611b9b57611b9b61332f565b60209081029190910181019190915260408051613a3160f11b928101929092526467616d657360d81b60228301527f496e7669746545787069726174696f6e0000000000000000000000000000000060308301526107b491016115a8565b604080516001808252818301909252600091602080830190803683370190505090508281600081518110611c2f57611c2f61332f565b60209081029190910181019190915260408051613a3160f11b928101929092526467616d657360d81b60228301527f506c61796572310000000000000000000000000000000000000000000000000060308301526107b4910161169b565b604080516001808252818301909252600091602080830190803683370190505090508281600081518110611cc357611cc361332f565b60209081029190910181019190915260408051613a3160f11b928101929092526467616d657360d81b60228301527f427579496e00000000000000000000000000000000000000000000000000000060308301526107b491016115a8565b600080611d2c6121ac565b9050306001600160a01b03821603611d5257611d4a86868686612325565b915050610c58565b6040517f8c364d590000000000000000000000000000000000000000000000000000000081526001600160a01b03821690638c364d5990611d9d9089908990899089906004016133c1565b602060405180830381865afa158015611dba573d6000803e3d6000fd5b505050506040513d601f19601f82011682018060405250810190611d4a919061336c565b6000611de86121ac565b9050306001600160a01b03821603611e0c57611e078686868686612352565b61044d565b6040517f390baae00000000000000000000000000000000000000000000000000000000081526001600160a01b0382169063390baae090611e599089908990899089908990600401613440565b600060405180830381600087803b158015611e7357600080fd5b505af1158015611e87573d6000803e3d6000fd5b50505050505050505050565b604080516001808252818301909252600091602080830190803683370190505090508281600081518110611ec957611ec961332f565b60209081029190910181019190915260408051613a3160f11b928101929092526467616d657360d81b60228301527f47616d65537461727454696d650000000000000000000000000000000000000060308301526107b491016115a8565b604080516002808252606082018352600092839291906020830190803683370190505090508381600081518110611f6057611f6061332f565b602002602001018181525050826001600160a01b031660001b81600181518110611f8c57611f8c61332f565b60209081029190910181019190915260408051613a3160f11b928101929092526467616d657360d81b60228301527f42616c616e6365000000000000000000000000000000000000000000000000006030830152600091610e5b9101611413565b611ff561094d565b6001600160a01b03166345afd1997f6e7367616d6573000000000000000000000000000000000000000000000000006040517fffffffff0000000000000000000000000000000000000000000000000000000060e084901b16815260048101919091526001600160a01b038516602482015260448101849052606401600060405180830381600087803b15801561208b57600080fd5b505af115801561044d573d6000803e3d6000fd5b6040805160028082526060820183526000928392919060208301908036833701905050905083816000815181106120d8576120d861332f565b602002602001018181525050826001600160a01b031660001b816001815181106121045761210461332f565b60209081029190910181019190915260408051613a3160f11b928101929092526467616d657360d81b60228301527f536f6c76656400000000000000000000000000000000000000000000000000006030830152600091610e4f9101610c00565b60006121718484611f27565b9050600061217f8584611f27565b905061218d858560006114ed565b612199858460006114ed565b610634846121a78385613306565b611fed565b7f629a4c26e296b22a8e0856e9f6ecb2d1008d7e00081111962cd175fa7488e175546000906001600160a01b0316806121e6573391505090565b919050565b606060006121f7611894565b90506001600160a01b038116300361229757600061221485612367565b5090506001600160a01b038116612263578461222f86612477565b6040517ffbf10ce6000000000000000000000000000000000000000000000000000000008152600401610333929190613487565b600061227d6122706109bd565b36601f19013584886125b4565b945090508061228f5761228f84612628565b505050610288565b6040517f3ae7af080000000000000000000000000000000000000000000000000000000081526001600160a01b03821690633ae7af08906122de9087908790600401613487565b6000604051808303816000875af11580156122fd573d6000803e3d6000fd5b505050506040513d6000823e601f3d908101601f19168201604052610c589190810190613528565b6000610e5b6123348686612630565b60ff858116601b0360080285901c1661234d8587612686565b6126bf565b61063485856123618487612686565b85612710565b604080516001808252818301909252600091829182916020808301908036833701905050905083816000815181106123a1576123a161332f565b60209081029190910181019190915260408051613a3160f11b818401527f776f726c6400000000000000000000000000000000000000000000000000000060228201527f53797374656d730000000000000000000000000000000000000000000000000060308201528151808203909301835281019052600090819081906124529061242c90613345565b857e150200140100000000000000000000000000000000000000000000000000006129b4565b5050602081015160349091015160609190911c9860f89190911c975095505050505050565b606081601081901b600061248a83612a84565b9050827fffffffffffffffffffffffffffff0000000000000000000000000000000000008316156124e5576124e07fffffffffffffffffffffffffffff0000000000000000000000000000000000008416612a9b565b61251c565b6040518060400160405280600681526020017f3c726f6f743e00000000000000000000000000000000000000000000000000008152505b7fffffffffffffffffffffffffffffffff000000000000000000000000000000008316156125525761254d83612a9b565b612589565b6040518060400160405280600681526020017f3c726f6f743e00000000000000000000000000000000000000000000000000008152505b60405160200161259b9392919061355d565b6040516020818303038152906040529350505050919050565b60006060836001600160a01b03166125cd848888612b3f565b6040516125da91906135eb565b600060405180830381855af49150503d8060008114612615576040519150601f19603f3d011682016040523d82523d6000602084013e61261a565b606091505b509097909650945050505050565b805160208201fd5b60008282604051602001612645929190613607565b60408051601f1981840301815291905280516020909101207f86425bff6b57326c7859e89024fe4f238ca327a1ae4a230180dd2f0e88aaa7d9189392505050565b600080805b8360ff168110156126b7576126ad60ff601b83900360080287901c1683613306565b915060010161268b565b509392505050565b6000602082106126e5576020820484019350602082816126e1576126e1613643565b0691505b508254600882021b6020829003808411156126b7576001850154600882021c82179150509392505050565b7f6f74000000000000000000000000000000000000000000000000000000000000847fffff000000000000000000000000000000000000000000000000000000000000160361279a57837f8c0b5119d4cec7b284c6b1b39252a03d1e2f2d7451a5895562524c113bb952be84848460405161278d93929190613659565b60405180910390a2610d83565b60006127a68585612630565b905060006127b386612b6f565b905060005b81518110156128885760008282815181106127d5576127d561332f565b602002602001015190506128016004826affffffffffffffffffffff1916612c4f90919063ffffffff16565b1561287f576040517f964f667d000000000000000000000000000000000000000000000000000000008152606082901c9063964f667d9061284c908b908b908b908b9060040161368c565b600060405180830381600087803b15801561286657600080fd5b505af115801561287a573d6000803e3d6000fd5b505050505b506001016127b8565b50857f8c0b5119d4cec7b284c6b1b39252a03d1e2f2d7451a5895562524c113bb952be8686866040516128bd93929190613659565b60405180910390a26128d8828565ffffffffffff1685612c6d565b60005b81518110156129ab5760008282815181106128f8576128f861332f565b602002602001015190506129246008826affffffffffffffffffffff1916612c4f90919063ffffffff16565b156129a2576040517fa8ba8721000000000000000000000000000000000000000000000000000000008152606082901c9063a8ba87219061296f908b908b908b908b9060040161368c565b600060405180830381600087803b15801561298957600080fd5b505af115801561299d573d6000803e3d6000fd5b505050505b506001016128db565b50505050505050565b60606000606060006129c46121ac565b9050306001600160a01b038216036129ed576129e1878787612c83565b93509350935050612a7b565b6040517f419b58fd0000000000000000000000000000000000000000000000000000000081526001600160a01b0382169063419b58fd90612a36908a908a908a906004016136d0565b600060405180830381865afa158015612a53573d6000803e3d6000fd5b505050506040513d6000823e601f3d908101601f191682016040526129e191908101906136f9565b93509350939050565b6000612a9260706010613306565b9190911b919050565b606060005b6010811015612b00577fffffffffffffffffffffffffffffffff000000000000000000000000000000008316600882021b7fff000000000000000000000000000000000000000000000000000000000000001615612b0057600101612aa0565b604080517fffffffffffffffffffffffffffffffff00000000000000000000000000000000851660208201528151603090910190915281815280610c58565b6060838383604051602001612b5693929190613766565b60405160208183030381529060405290505b9392505050565b60408051600180825281830190925260609160009190602080830190803683370190505090508281600081518110612ba957612ba961332f565b60209081029190910181019190915260408051613a3160f11b818401527f73746f726500000000000000000000000000000000000000000000000000000060228201527f53746f7265486f6f6b730000000000000000000000000000000000000000000060308201528151808203909301835281019052600090612c3890612c3090613345565b836000612d8b565b9050610c58612c4a8260008451612dc5565b612e53565b60008160ff1682612c608560581c90565b1660ff1614905092915050565b6107b483838351612c7e8560200190565b612e64565b6060600060606000612c9485612f23565b9050612ca1878783612f46565b93506000612cae86612f7f565b90508015612d8057612cc08888612fbc565b935066ffffffffffffff841667ffffffffffffffff811115612ce457612ce4613319565b6040519080825280601f01601f191660200182016040528015612d0e576020820181803683370190505b5092506020830160005b828160ff161015612d7d576000612d308b8b84612fcf565b90506000612d4d888460ff166028026038011c64ffffffffff1690565b9050612d5c826000838761304f565b612d668185613306565b935050508080612d75906137b8565b915050612d18565b50505b505093509350939050565b6060610c58612d9b858585612fcf565b6000612dc085612dab8989612fbc565b9060ff166028026038011c64ffffffffff1690565b61311b565b600081831180612dd55750835182115b15612e12578383836040517f23230fa3000000000000000000000000000000000000000000000000000000008152600401610333939291906137d7565b60208401612e208482613306565b90506000612e2e85856137fc565b6fffffffffffffffffffffffffffffffff1660809290921b9190911795945050505050565b60606000612b68836015600061313e565b8215612ede5760208310612e8e57602083048401935060208381612e8a57612e8a613643565b0692505b8215612ede5760208390036000600019600885021c1990506008850281811c91508351811c9050811987541682821617875550818411612ecf575050610d83565b50600194909401939182900391015b5b60208210612f005780518455600190930192601f1990910190602001612edf565b8115610d83576000600019600884021c8554835182191691161785555050505050565b60006008612f33600260206137fc565b612f3d919061380f565b9190911c919050565b606081600003612f655750604080516020810190915260008152612b68565b6000612f718585612630565b9050610e5b8160008561311b565b60006008600180612f92600260206137fc565b612f9c91906137fc565b612fa691906137fc565b612fb0919061380f565b8260ff911c1692915050565b6000612b68612fcb84846131b9565b5490565b60008383604051602001612fe4929190613607565b604051602081830303815290604052805190602001208260f81b7effffffffffffffffffffffffffffffffffffffffffffffffffffffffffffff19167f3b4102da22e32d82fc925482184f16c09fd4281692720b87d124aef6da48a0f1181860001c90509392505050565b82156130d657602083106130795760208304840193506020838161307557613075613643565b0692505b82156130d657602083900360008184101561309c5750600019600884021c6130a6565b50600019600882021c5b8554600886021b8184511682198216178452508184116130c7575050610d83565b50600194909401939182900391015b5b602082106130f85783548152600190930192601f19909101906020016130d7565b8115610d83576000600019600884021c8251865482191691161782525050505050565b60405160208101601f19603f84840101166040528282526126b78585858461304f565b6060600061314c8560801c90565b90506fffffffffffffffffffffffffffffffff8516600085828161317257613172613643565b04905060405193506020840160208202810160405281855260005b828110156131ad578451871c82529387019360209091019060010161318d565b50505050509392505050565b600082826040516020016131ce929190613607565b60408051601f1981840301815291905280516020909101207f14e2fcc58e58e68ec7edc30c8d50dccc3ce2714a623ec81f46b6a63922d76569189392505050565b60006020828403121561322157600080fd5b81357fffffffff0000000000000000000000000000000000000000000000000000000081168114612b6857600080fd5b60006020828403121561326357600080fd5b5035919050565b60008060006060848603121561327f57600080fd5b83356001811061328e57600080fd5b9250602084013563ffffffff811681146132a757600080fd5b929592945050506040919091013590565b634e487b7160e01b600052602160045260246000fd5b634e487b7160e01b600052601160045260246000fd5b61ffff8181168382160190808211156132ff576132ff6132ce565b5092915050565b80820180821115610288576102886132ce565b634e487b7160e01b600052604160045260246000fd5b634e487b7160e01b600052603260045260246000fd5b80516020808301519190811015613366576000198160200360031b1b821691505b50919050565b60006020828403121561337e57600080fd5b5051919050565b60008151808452602080850194506020840160005b838110156133b65781518752958201959082019060010161339a565b509495945050505050565b8481526080602082015260006133da6080830186613385565b60ff949094166040830152506060015292915050565b60005b8381101561340b5781810151838201526020016133f3565b50506000910152565b6000815180845261342c8160208601602086016133f0565b601f01601f19169290920160200192915050565b85815260a06020820152600061345960a0830187613385565b60ff8616604084015282810360608401526134748186613414565b9150508260808301529695505050505050565b828152604060208201526000610c586040830184613414565b600082601f8301126134b157600080fd5b815167ffffffffffffffff808211156134cc576134cc613319565b604051601f8301601f19908116603f011681019082821181831017156134f4576134f4613319565b8160405283815286602085880101111561350d57600080fd5b61351e8460208301602089016133f0565b9695505050505050565b60006020828403121561353a57600080fd5b815167ffffffffffffffff81111561355157600080fd5b610c58848285016134a0565b7fffff0000000000000000000000000000000000000000000000000000000000008416815260007f3a0000000000000000000000000000000000000000000000000000000000000080600284015284516135be8160038601602089016133f0565b8084019050816003820152845191506135de8260048301602088016133f0565b0160040195945050505050565b600082516135fd8184602087016133f0565b9190910192915050565b8281526000602080830184516020860160005b828110156136365781518452928401929084019060010161361a565b5091979650505050505050565b634e487b7160e01b600052601260045260246000fd5b60608152600061366c6060830186613385565b65ffffffffffff85166020840152828103604084015261351e8185613414565b8481526080602082015260006136a56080830186613385565b65ffffffffffff8516604084015282810360608401526136c58185613414565b979650505050505050565b8381526060602082015260006136e96060830185613385565b9050826040830152949350505050565b60008060006060848603121561370e57600080fd5b835167ffffffffffffffff8082111561372657600080fd5b613732878388016134a0565b945060208601519350604086015191508082111561374f57600080fd5b5061375c868287016134a0565b9150509250925092565b600084516137788184602089016133f0565b60609490941b7fffffffffffffffffffffffffffffffffffffffff0000000000000000000000001691909301908152601481019190915260340192915050565b600060ff821660ff81036137ce576137ce6132ce565b60010192915050565b6060815260006137ea6060830186613414565b60208301949094525060400152919050565b81810381811115610288576102886132ce565b8082028115828204841417610288576102886132ce56fea2646970667358221220eac7e01d288e51aec4b9dee87b2a88329733c47d2ab0f2afeda2a0a8ee41f26864736f6c63430008180033","linkReferences":{}},"methodIdentifiers":{"_msgSender()":"119df25f","_msgValue()":"45ec9354","_world()":"e1af802c","cancelPendingGame(bytes32)":"b49df3b9","claim(bytes32)":"bd66528a","joinGame(bytes32)":"bf474766","newGame(uint8,uint32,uint256)":"eb2098e2","submitSolution(bytes32)":"dc1743fa","supportsInterface(bytes4)":"01ffc9a7","voteRematch(bytes32)":"232328a1"},"id":99}