{"abi":[{"type":"function","name":"_msgSender","inputs":[],"outputs":[{"name":"sender","type":"address","internalType":"address"}],"stateMutability":"view"},{"type":"function","name":"_msgValue","inputs":[],"outputs":[{"name":"value","type":"uint256","internalType":"uint256"}],"stateMutability":"pure"},{"type":"function","name":"_world","inputs":[],"outputs":[{"name":"","type":"address","internalType":"address"}],"stateMutability":"view"},{"type":"function","name":"claim","inputs":[{"name":"gameId","type":"bytes32","internalType":"bytes32"}],"outputs":[],"stateMutability":"nonpayable"},{"type":"function","name":"joinGame","inputs":[{"name":"gameId","type":"bytes32","internalType":"bytes32"}],"outputs":[],"stateMutability":"payable"},{"type":"function","name":"newGame","inputs":[{"name":"gameType","type":"uint8","internalType":"enum Game"},{"name":"submissionWindowSeconds","type":"uint32","internalType":"uint32"},{"name":"inviteExpirationTimestamp","type":"uint256","internalType":"uint256"}],"outputs":[],"stateMutability":"payable"},{"type":"function","name":"submitSolution","inputs":[{"name":"gameId","type":"bytes32","internalType":"bytes32"}],"outputs":[],"stateMutability":"nonpayable"},{"type":"function","name":"supportsInterface","inputs":[{"name":"interfaceId","type":"bytes4","internalType":"bytes4"}],"outputs":[{"name":"","type":"bool","internalType":"bool"}],"stateMutability":"pure"},{"type":"function","name":"voteRematch","inputs":[{"name":"gameId","type":"bytes32","internalType":"bytes32"}],"outputs":[],"stateMutability":"nonpayable"},{"type":"event","name":"Store_SpliceStaticData","inputs":[{"name":"tableId","type":"bytes32","indexed":true,"internalType":"ResourceId"},{"name":"keyTuple","type":"bytes32[]","indexed":false,"internalType":"bytes32[]"},{"name":"start","type":"uint48","indexed":false,"internalType":"uint48"},{"name":"data","type":"bytes","indexed":false,"internalType":"bytes"}],"anonymous":false},{"type":"error","name":"Slice_OutOfBounds","inputs":[{"name":"data","type":"bytes","internalType":"bytes"},{"name":"start","type":"uint256","internalType":"uint256"},{"name":"end","type":"uint256","internalType":"uint256"}]},{"type":"error","name":"World_ResourceNotFound","inputs":[{"name":"resourceId","type":"bytes32","internalType":"ResourceId"},{"name":"resourceIdString","type":"string","internalType":"string"}]}],"bytecode":{"object":"0x608060405234801561001057600080fd5b50613783806100206000396000f3fe6080604052600436106100965760003560e01c8063bd66528a11610069578063dc1743fa1161004e578063dc1743fa14610172578063e1af802c14610192578063eb2098e2146101a757600080fd5b8063bd66528a1461013f578063bf4747661461015f57600080fd5b806301ffc9a71461009b578063119df25f146100d0578063232328a1146100fd57806345ec93541461011f575b600080fd5b3480156100a757600080fd5b506100bb6100b6366004613136565b6101ba565b60405190151581526020015b60405180910390f35b3480156100dc57600080fd5b506100e5610253565b6040516001600160a01b0390911681526020016100c7565b34801561010957600080fd5b5061011d610118366004613178565b610262565b005b34801561012b57600080fd5b50604051601f1936013581526020016100c7565b34801561014b57600080fd5b5061011d61015a366004613178565b61044d565b61011d61016d366004613178565b610543565b34801561017e57600080fd5b5061011d61018d366004613178565b6106c1565b34801561019e57600080fd5b506100e5610855565b61011d6101b5366004613191565b61085f565b60007fffffffff0000000000000000000000000000000000000000000000000000000082167fb5dee12700000000000000000000000000000000000000000000000000000000148061024d57507fffffffff0000000000000000000000000000000000000000000000000000000082167f01ffc9a700000000000000000000000000000000000000000000000000000000145b92915050565b600061025d6108c5565b905090565b80600061026d610253565b9050610278826108f7565b6001600160a01b0316816001600160a01b031614806102b0575061029b826109d8565b6001600160a01b0316816001600160a01b0316145b6103015760405162461bcd60e51b815260206004820152600f60248201527f4e6f742067616d6520706c61796572000000000000000000000000000000000060448201526064015b60405180910390fd5b600061030c846108f7565b90506000610319856109d8565b9050600061032686610a72565b9050806103338785610b50565b1015801561034a5750806103478784610b50565b10155b6103bc5760405162461bcd60e51b815260206004820152602160248201527f43616e6e6f7420726573746172742c206120706c61796572207769746864726560448201527f770000000000000000000000000000000000000000000000000000000000000060648201526084016102f8565b6103cf866103c8610253565b6001610c1f565b6103d98684610d48565b80156103ea57506103ea8683610d48565b15610445576103fb86846000610e56565b61040786836000610e56565b61041386846000610c1f565b61041f86836000610c1f565b61043c8661042c88610f15565b6104379060016131f5565b610ff0565b610445866110fe565b505050505050565b806000610458610253565b9050610463826108f7565b6001600160a01b0316816001600160a01b0316148061049b5750610486826109d8565b6001600160a01b0316816001600160a01b0316145b6104e75760405162461bcd60e51b815260206004820152600f60248201527f4e6f742067616d6520706c61796572000000000000000000000000000000000060448201526064016102f8565b60006104f2846108f7565b905060006104ff856109d8565b9050610509610253565b6001600160a01b0316826001600160a01b0316036105315761052c858383611116565b61053c565b61053c858284611116565b5050505050565b600061054e8261126c565b9050600061055b83610a72565b9050600182600381111561057157610571613217565b146105be5760405162461bcd60e51b815260206004820152601360248201527f47616d65206973206e6f742070656e64696e670000000000000000000000000060448201526064016102f8565b426105c88461131e565b116106155760405162461bcd60e51b815260206004820152600e60248201527f496e76697465206578706972656400000000000000000000000000000000000060448201526064016102f8565b8036601f19013510156106905760405162461bcd60e51b815260206004820152602160248201527f596f75206d757374206465706f73697420746f206a6f696e207468652067616d60448201527f650000000000000000000000000000000000000000000000000000000000000060648201526084016102f8565b6106a28361069c610253565b836113b8565b6106b3836106ae610253565b6114d6565b6106bc836110fe565b505050565b8060006106cc610253565b90506106d7826108f7565b6001600160a01b0316816001600160a01b0316148061070f57506106fa826109d8565b6001600160a01b0316816001600160a01b0316145b61075b5760405162461bcd60e51b815260206004820152600f60248201527f4e6f742067616d6520706c61796572000000000000000000000000000000000060448201526064016102f8565b60006107668461126c565b90506000610773856115ea565b90506000610780866116c5565b9050600283600381111561079657610796613217565b146107e35760405162461bcd60e51b815260206004820152601260248201527f47616d65206973206e6f7420616374697665000000000000000000000000000060448201526064016102f8565b6107f363ffffffff83168261322d565b4211156108425760405162461bcd60e51b815260206004820152601860248201527f5375626d697373696f6e2077696e646f7720636c6f736564000000000000000060448201526064016102f8565b6104458661084e610253565b6001610e56565b600061025d61175f565b6000610869610253565b9050601f19360135600061087b611769565b9050610887818761186e565b61089281600161195d565b61089c8186611a14565b6108a68185611b22565b6108b08184611bb6565b6108bb8184846113b8565b6104458183611c4a565b7fffffffffffffffffffffffffffffffffffffffffffffffffffffffffffffffcc36013560601c806108f45750335b90565b60408051600180825281830190925260009182919060208083019080368337019050509050828160008151811061093057610930613256565b60209081029190910181019190915260408051613a3160f11b928101929092526467616d657360d81b60228301527f506c61796572310000000000000000000000000000000000000000000000000060308301526000916109cd91015b6040516020818303038152906040526109a59061326c565b8360007e14010014000000000000000000000000000000000000000000000000000000611cde565b60601c949350505050565b604080516001808252818301909252600091829190602080830190803683370190505090508281600081518110610a1157610a11613256565b60209081029190910181019190915260408051613a3160f11b928101929092526467616d657360d81b60228301527f506c61796572320000000000000000000000000000000000000000000000000060308301526000916109cd910161098d565b604080516001808252818301909252600091829190602080830190803683370190505090508281600081518110610aab57610aab613256565b60209081029190910181019190915260408051613a3160f11b928101929092526467616d657360d81b60228301527f427579496e0000000000000000000000000000000000000000000000000000006030830152600091610b4891015b604051602081830303815290604052610b209061326c565b8360007e20010020000000000000000000000000000000000000000000000000000000611cde565b949350505050565b604080516002808252606082018352600092839291906020830190803683370190505090508381600081518110610b8957610b89613256565b602002602001018181525050826001600160a01b031660001b81600181518110610bb557610bb5613256565b60209081029190910181019190915260408051613a3160f11b928101929092526467616d657360d81b60228301527f42616c616e6365000000000000000000000000000000000000000000000000006030830152600091610c169101610b08565b95945050505050565b6040805160028082526060820183526000926020830190803683370190505090508381600081518110610c5457610c54613256565b602002602001018181525050826001600160a01b031660001b81600181518110610c8057610c80613256565b60209081029190910181019190915260408051613a3160f11b928101929092526467616d657360d81b60228301527f566f746552656d617463680000000000000000000000000000000000000000006030830152610d4291015b604051602081830303815290604052610cf29061326c565b82600085604051602001610d0d91151560f81b815260010190565b60408051601f198184030181529190527e01010001000000000000000000000000000000000000000000000000000000611d9b565b50505050565b604080516002808252606082018352600092839291906020830190803683370190505090508381600081518110610d8157610d81613256565b602002602001018181525050826001600160a01b031660001b81600181518110610dad57610dad613256565b60209081029190910181019190915260408051613a3160f11b928101929092526467616d657360d81b60228301527f566f746552656d617463680000000000000000000000000000000000000000006030830152600091610e4a91015b604051602081830303815290604052610e229061326c565b8360007e01010001000000000000000000000000000000000000000000000000000000611cde565b9050610c168160f81c90565b6040805160028082526060820183526000926020830190803683370190505090508381600081518110610e8b57610e8b613256565b602002602001018181525050826001600160a01b031660001b81600181518110610eb757610eb7613256565b60209081029190910181019190915260408051613a3160f11b928101929092526467616d657360d81b60228301527f536f6c76656400000000000000000000000000000000000000000000000000006030830152610d429101610cda565b604080516001808252818301909252600091829190602080830190803683370190505090508281600081518110610f4e57610f4e613256565b60209081029190910181019190915260408051613a3160f11b818401526467616d657360d81b60228201527f52656d61746368436f756e74000000000000000000000000000000000000000060308201528151808203909301835281019052600090610fe590610fbd9061326c565b8360007e02010002000000000000000000000000000000000000000000000000000000611cde565b60f01c949350505050565b60408051600180825281830190925260009160208083019080368337019050509050828160008151811061102657611026613256565b60209081029190910181019190915260408051613a3160f11b818401526467616d657360d81b60228201527f52656d61746368436f756e740000000000000000000000000000000000000000603082015281518082039093018352810190526106bc906110929061326c565b6040517fffff00000000000000000000000000000000000000000000000000000000000060f086901b166020820152839060009060220160408051601f198184030181529190527e02010002000000000000000000000000000000000000000000000000000000611d9b565b61110981600261195d565b6111138142611e50565b50565b60006111228484611ee4565b905060006111308584611ee4565b9050600061113d866115ea565b9050600061114a876116c5565b9050600061115e63ffffffff84168361322d565b42118061117057508480156111705750835b9050806111bf5760405162461bcd60e51b815260206004820152600c60248201527f43616e6e6f7420636c61696d000000000000000000000000000000000000000060448201526064016102f8565b8380156111ca575084155b156112175760405162461bcd60e51b815260206004820152601060248201527f4e6f7468696e6720746f20636c61696d0000000000000000000000000000000060448201526064016102f8565b848015611222575083155b1561124757611232888888611faa565b61123d88600361195d565b5050505050505050565b61125088611ff1565b61125a8887610b50565b60000361123d5761123d88600361195d565b6040805160018082528183019092526000918291906020808301908036833701905050905082816000815181106112a5576112a5613256565b60209081029190910181019190915260408051613a3160f11b928101929092526467616d657360d81b60228301527f47616d655374617475730000000000000000000000000000000000000000000060308301526000916113069101610e0a565b905060f881901c6003811115610b4857610b48613217565b60408051600180825281830190925260009182919060208083019080368337019050509050828160008151811061135757611357613256565b60209081029190910181019190915260408051613a3160f11b928101929092526467616d657360d81b60228301527f496e7669746545787069726174696f6e000000000000000000000000000000006030830152600091610b489101610b08565b60408051600280825260608201835260009260208301908036833701905050905083816000815181106113ed576113ed613256565b602002602001018181525050826001600160a01b031660001b8160018151811061141957611419613256565b60209081029190910181019190915260408051613a3160f11b928101929092526467616d657360d81b60228301527f42616c616e6365000000000000000000000000000000000000000000000000006030830152610d4291015b60405160208183030381529060405261148b9061326c565b826000856040516020016114a191815260200190565b60408051601f198184030181529190527e20010020000000000000000000000000000000000000000000000000000000611d9b565b60408051600180825281830190925260009160208083019080368337019050509050828160008151811061150c5761150c613256565b60209081029190910181019190915260408051613a3160f11b928101929092526467616d657360d81b60228301527f506c61796572320000000000000000000000000000000000000000000000000060308301526106bc91015b60405160208183030381529060405261157e9061326c565b6040517fffffffffffffffffffffffffffffffffffffffff000000000000000000000000606086901b166020820152839060009060340160408051601f198184030181529190527e14010014000000000000000000000000000000000000000000000000000000611d9b565b60408051600180825281830190925260009182919060208083019080368337019050509050828160008151811061162357611623613256565b60209081029190910181019190915260408051613a3160f11b818401526467616d657360d81b60228201527f5375626d697373696f6e57696e646f7700000000000000000000000000000000603082015281518082039093018352810190526000906116ba906116929061326c565b8360007e04010004000000000000000000000000000000000000000000000000000000611cde565b60e01c949350505050565b6040805160018082528183019092526000918291906020808301908036833701905050905082816000815181106116fe576116fe613256565b60209081029190910181019190915260408051613a3160f11b928101929092526467616d657360d81b60228301527f47616d65537461727454696d65000000000000000000000000000000000000006030830152600091610b489101610b08565b600061025d612021565b604080517f737900000000000000000000000000000000000000000000000000000000000060208201527f756e69717565456e74697479000000000000000000000000000000000000000060228201527f73797374656d0000000000000000000000000000000000000000000000000000603082015260009161185b91016040516020818303038152906040526117ff9061326c565b6040805160048152602481019091526020810180517bffffffffffffffffffffffffffffffffffffffffffffffffffffffff167f490923cd00000000000000000000000000000000000000000000000000000000179052612060565b80602001905181019061025d9190613293565b6040805160018082528183019092526000916020808301908036833701905050905082816000815181106118a4576118a4613256565b60209081029190910181019190915260408051613a3160f11b818401526467616d657360d81b60228201527f47616d6554797065000000000000000000000000000000000000000000000000603082015281518082039093018352810190526106bc906119109061326c565b82600085801561192257611922613217565b604051602001610d0d919060f89190911b7fff0000000000000000000000000000000000000000000000000000000000000016815260010190565b60408051600180825281830190925260009160208083019080368337019050509050828160008151811061199357611993613256565b60209081029190910181019190915260408051613a3160f11b818401526467616d657360d81b60228201527f47616d6553746174757300000000000000000000000000000000000000000000603082015281518082039093018352810190526106bc906119ff9061326c565b82600085600381111561192257611922613217565b604080516001808252818301909252600091602080830190803683370190505090508281600081518110611a4a57611a4a613256565b60209081029190910181019190915260408051613a3160f11b818401526467616d657360d81b60228201527f5375626d697373696f6e57696e646f7700000000000000000000000000000000603082015281518082039093018352810190526106bc90611ab69061326c565b6040517fffffffff0000000000000000000000000000000000000000000000000000000060e086901b166020820152839060009060240160408051601f198184030181529190527e04010004000000000000000000000000000000000000000000000000000000611d9b565b604080516001808252818301909252600091602080830190803683370190505090508281600081518110611b5857611b58613256565b60209081029190910181019190915260408051613a3160f11b928101929092526467616d657360d81b60228301527f496e7669746545787069726174696f6e0000000000000000000000000000000060308301526106bc9101611473565b604080516001808252818301909252600091602080830190803683370190505090508281600081518110611bec57611bec613256565b60209081029190910181019190915260408051613a3160f11b928101929092526467616d657360d81b60228301527f506c61796572310000000000000000000000000000000000000000000000000060308301526106bc9101611566565b604080516001808252818301909252600091602080830190803683370190505090508281600081518110611c8057611c80613256565b60209081029190910181019190915260408051613a3160f11b928101929092526467616d657360d81b60228301527f427579496e00000000000000000000000000000000000000000000000000000060308301526106bc9101611473565b600080611ce9612021565b9050306001600160a01b03821603611d0f57611d078686868661219a565b915050610b48565b6040517f8c364d590000000000000000000000000000000000000000000000000000000081526001600160a01b03821690638c364d5990611d5a9089908990899089906004016132e8565b602060405180830381865afa158015611d77573d6000803e3d6000fd5b505050506040513d601f19601f82011682018060405250810190611d079190613293565b6000611da5612021565b9050306001600160a01b03821603611dc957611dc486868686866121c7565b610445565b6040517f390baae00000000000000000000000000000000000000000000000000000000081526001600160a01b0382169063390baae090611e169089908990899089908990600401613367565b600060405180830381600087803b158015611e3057600080fd5b505af1158015611e44573d6000803e3d6000fd5b50505050505050505050565b604080516001808252818301909252600091602080830190803683370190505090508281600081518110611e8657611e86613256565b60209081029190910181019190915260408051613a3160f11b928101929092526467616d657360d81b60228301527f47616d65537461727454696d650000000000000000000000000000000000000060308301526106bc9101611473565b604080516002808252606082018352600092839291906020830190803683370190505090508381600081518110611f1d57611f1d613256565b602002602001018181525050826001600160a01b031660001b81600181518110611f4957611f49613256565b60209081029190910181019190915260408051613a3160f11b928101929092526467616d657360d81b60228301527f536f6c76656400000000000000000000000000000000000000000000000000006030830152600091610e4a9101610e0a565b6000611fb68484610b50565b90506000611fc48584610b50565b9050611fd2858560006113b8565b611fde858460006113b8565b61053c84611fec838561322d565b6121dc565b6000611ffb610253565b905060006120098383610b50565b9050612017838360006113b8565b6106bc82826121dc565b7f629a4c26e296b22a8e0856e9f6ecb2d1008d7e00081111962cd175fa7488e175546000906001600160a01b03168061205b573391505090565b919050565b6060600061206c61175f565b90506001600160a01b038116300361210c5760006120898561228e565b5090506001600160a01b0381166120d857846120a48661239e565b6040517ffbf10ce60000000000000000000000000000000000000000000000000000000081526004016102f89291906133ae565b60006120f26120e56108c5565b36601f19013584886124db565b9450905080612104576121048461254f565b50505061024d565b6040517f3ae7af080000000000000000000000000000000000000000000000000000000081526001600160a01b03821690633ae7af089061215390879087906004016133ae565b6000604051808303816000875af1158015612172573d6000803e3d6000fd5b505050506040513d6000823e601f3d908101601f19168201604052610b48919081019061344f565b6000610c166121a98686612557565b60ff858116601b0360080285901c166121c285876125ad565b6125e6565b61053c85856121d684876125ad565b85612637565b6121e4610855565b6001600160a01b03166345afd1997f6e7367616d6573000000000000000000000000000000000000000000000000006040517fffffffff0000000000000000000000000000000000000000000000000000000060e084901b16815260048101919091526001600160a01b038516602482015260448101849052606401600060405180830381600087803b15801561227a57600080fd5b505af1158015610445573d6000803e3d6000fd5b604080516001808252818301909252600091829182916020808301908036833701905050905083816000815181106122c8576122c8613256565b60209081029190910181019190915260408051613a3160f11b818401527f776f726c6400000000000000000000000000000000000000000000000000000060228201527f53797374656d73000000000000000000000000000000000000000000000000006030820152815180820390930183528101905260009081908190612379906123539061326c565b857e150200140100000000000000000000000000000000000000000000000000006128db565b5050602081015160349091015160609190911c9860f89190911c975095505050505050565b606081601081901b60006123b1836129ab565b9050827fffffffffffffffffffffffffffff00000000000000000000000000000000000083161561240c576124077fffffffffffffffffffffffffffff00000000000000000000000000000000000084166129c2565b612443565b6040518060400160405280600681526020017f3c726f6f743e00000000000000000000000000000000000000000000000000008152505b7fffffffffffffffffffffffffffffffff0000000000000000000000000000000083161561247957612474836129c2565b6124b0565b6040518060400160405280600681526020017f3c726f6f743e00000000000000000000000000000000000000000000000000008152505b6040516020016124c293929190613484565b6040516020818303038152906040529350505050919050565b60006060836001600160a01b03166124f4848888612a66565b6040516125019190613512565b600060405180830381855af49150503d806000811461253c576040519150601f19603f3d011682016040523d82523d6000602084013e612541565b606091505b509097909650945050505050565b805160208201fd5b6000828260405160200161256c92919061352e565b60408051601f1981840301815291905280516020909101207f86425bff6b57326c7859e89024fe4f238ca327a1ae4a230180dd2f0e88aaa7d9189392505050565b600080805b8360ff168110156125de576125d460ff601b83900360080287901c168361322d565b91506001016125b2565b509392505050565b60006020821061260c576020820484019350602082816126085761260861356a565b0691505b508254600882021b6020829003808411156125de576001850154600882021c82179150509392505050565b7f6f74000000000000000000000000000000000000000000000000000000000000847fffff00000000000000000000000000000000000000000000000000000000000016036126c157837f8c0b5119d4cec7b284c6b1b39252a03d1e2f2d7451a5895562524c113bb952be8484846040516126b493929190613580565b60405180910390a2610d42565b60006126cd8585612557565b905060006126da86612a96565b905060005b81518110156127af5760008282815181106126fc576126fc613256565b602002602001015190506127286004826affffffffffffffffffffff1916612b7690919063ffffffff16565b156127a6576040517f964f667d000000000000000000000000000000000000000000000000000000008152606082901c9063964f667d90612773908b908b908b908b906004016135b3565b600060405180830381600087803b15801561278d57600080fd5b505af11580156127a1573d6000803e3d6000fd5b505050505b506001016126df565b50857f8c0b5119d4cec7b284c6b1b39252a03d1e2f2d7451a5895562524c113bb952be8686866040516127e493929190613580565b60405180910390a26127ff828565ffffffffffff1685612b94565b60005b81518110156128d257600082828151811061281f5761281f613256565b6020026020010151905061284b6008826affffffffffffffffffffff1916612b7690919063ffffffff16565b156128c9576040517fa8ba8721000000000000000000000000000000000000000000000000000000008152606082901c9063a8ba872190612896908b908b908b908b906004016135b3565b600060405180830381600087803b1580156128b057600080fd5b505af11580156128c4573d6000803e3d6000fd5b505050505b50600101612802565b50505050505050565b60606000606060006128eb612021565b9050306001600160a01b0382160361291457612908878787612baa565b935093509350506129a2565b6040517f419b58fd0000000000000000000000000000000000000000000000000000000081526001600160a01b0382169063419b58fd9061295d908a908a908a906004016135f7565b600060405180830381865afa15801561297a573d6000803e3d6000fd5b505050506040513d6000823e601f3d908101601f191682016040526129089190810190613620565b93509350939050565b60006129b96070601061322d565b9190911b919050565b606060005b6010811015612a27577fffffffffffffffffffffffffffffffff000000000000000000000000000000008316600882021b7fff000000000000000000000000000000000000000000000000000000000000001615612a27576001016129c7565b604080517fffffffffffffffffffffffffffffffff00000000000000000000000000000000851660208201528151603090910190915281815280610b48565b6060838383604051602001612a7d9392919061368d565b60405160208183030381529060405290505b9392505050565b60408051600180825281830190925260609160009190602080830190803683370190505090508281600081518110612ad057612ad0613256565b60209081029190910181019190915260408051613a3160f11b818401527f73746f726500000000000000000000000000000000000000000000000000000060228201527f53746f7265486f6f6b730000000000000000000000000000000000000000000060308201528151808203909301835281019052600090612b5f90612b579061326c565b836000612cb2565b9050610b48612b718260008451612cec565b612d7a565b60008160ff1682612b878560581c90565b1660ff1614905092915050565b6106bc83838351612ba58560200190565b612d8b565b6060600060606000612bbb85612e4a565b9050612bc8878783612e6d565b93506000612bd586612ea6565b90508015612ca757612be78888612ee3565b935066ffffffffffffff841667ffffffffffffffff811115612c0b57612c0b613240565b6040519080825280601f01601f191660200182016040528015612c35576020820181803683370190505b5092506020830160005b828160ff161015612ca4576000612c578b8b84612ef6565b90506000612c74888460ff166028026038011c64ffffffffff1690565b9050612c838260008387612f76565b612c8d818561322d565b935050508080612c9c906136df565b915050612c3f565b50505b505093509350939050565b6060610b48612cc2858585612ef6565b6000612ce785612cd28989612ee3565b9060ff166028026038011c64ffffffffff1690565b613042565b600081831180612cfc5750835182115b15612d39578383836040517f23230fa30000000000000000000000000000000000000000000000000000000081526004016102f8939291906136fe565b60208401612d47848261322d565b90506000612d558585613723565b6fffffffffffffffffffffffffffffffff1660809290921b9190911795945050505050565b60606000612a8f8360156000613065565b8215612e055760208310612db557602083048401935060208381612db157612db161356a565b0692505b8215612e055760208390036000600019600885021c1990506008850281811c91508351811c9050811987541682821617875550818411612df6575050610d42565b50600194909401939182900391015b5b60208210612e275780518455600190930192601f1990910190602001612e06565b8115610d42576000600019600884021c8554835182191691161785555050505050565b60006008612e5a60026020613723565b612e649190613736565b9190911c919050565b606081600003612e8c5750604080516020810190915260008152612a8f565b6000612e988585612557565b9050610c1681600085613042565b60006008600180612eb960026020613723565b612ec39190613723565b612ecd9190613723565b612ed79190613736565b8260ff911c1692915050565b6000612a8f612ef284846130e0565b5490565b60008383604051602001612f0b92919061352e565b604051602081830303815290604052805190602001208260f81b7effffffffffffffffffffffffffffffffffffffffffffffffffffffffffffff19167f3b4102da22e32d82fc925482184f16c09fd4281692720b87d124aef6da48a0f1181860001c90509392505050565b8215612ffd5760208310612fa057602083048401935060208381612f9c57612f9c61356a565b0692505b8215612ffd576020839003600081841015612fc35750600019600884021c612fcd565b50600019600882021c5b8554600886021b818451168219821617845250818411612fee575050610d42565b50600194909401939182900391015b5b6020821061301f5783548152600190930192601f1990910190602001612ffe565b8115610d42576000600019600884021c8251865482191691161782525050505050565b60405160208101601f19603f84840101166040528282526125de85858584612f76565b606060006130738560801c90565b90506fffffffffffffffffffffffffffffffff851660008582816130995761309961356a565b04905060405193506020840160208202810160405281855260005b828110156130d4578451871c8252938701936020909101906001016130b4565b50505050509392505050565b600082826040516020016130f592919061352e565b60408051601f1981840301815291905280516020909101207f14e2fcc58e58e68ec7edc30c8d50dccc3ce2714a623ec81f46b6a63922d76569189392505050565b60006020828403121561314857600080fd5b81357fffffffff0000000000000000000000000000000000000000000000000000000081168114612a8f57600080fd5b60006020828403121561318a57600080fd5b5035919050565b6000806000606084860312156131a657600080fd5b8335600181106131b557600080fd5b9250602084013563ffffffff811681146131ce57600080fd5b929592945050506040919091013590565b634e487b7160e01b600052601160045260246000fd5b61ffff818116838216019080821115613210576132106131df565b5092915050565b634e487b7160e01b600052602160045260246000fd5b8082018082111561024d5761024d6131df565b634e487b7160e01b600052604160045260246000fd5b634e487b7160e01b600052603260045260246000fd5b8051602080830151919081101561328d576000198160200360031b1b821691505b50919050565b6000602082840312156132a557600080fd5b5051919050565b60008151808452602080850194506020840160005b838110156132dd578151875295820195908201906001016132c1565b509495945050505050565b84815260806020820152600061330160808301866132ac565b60ff949094166040830152506060015292915050565b60005b8381101561333257818101518382015260200161331a565b50506000910152565b60008151808452613353816020860160208601613317565b601f01601f19169290920160200192915050565b85815260a06020820152600061338060a08301876132ac565b60ff86166040840152828103606084015261339b818661333b565b9150508260808301529695505050505050565b828152604060208201526000610b48604083018461333b565b600082601f8301126133d857600080fd5b815167ffffffffffffffff808211156133f3576133f3613240565b604051601f8301601f19908116603f0116810190828211818310171561341b5761341b613240565b8160405283815286602085880101111561343457600080fd5b613445846020830160208901613317565b9695505050505050565b60006020828403121561346157600080fd5b815167ffffffffffffffff81111561347857600080fd5b610b48848285016133c7565b7fffff0000000000000000000000000000000000000000000000000000000000008416815260007f3a0000000000000000000000000000000000000000000000000000000000000080600284015284516134e5816003860160208901613317565b808401905081600382015284519150613505826004830160208801613317565b0160040195945050505050565b60008251613524818460208701613317565b9190910192915050565b8281526000602080830184516020860160005b8281101561355d57815184529284019290840190600101613541565b5091979650505050505050565b634e487b7160e01b600052601260045260246000fd5b60608152600061359360608301866132ac565b65ffffffffffff851660208401528281036040840152613445818561333b565b8481526080602082015260006135cc60808301866132ac565b65ffffffffffff8516604084015282810360608401526135ec818561333b565b979650505050505050565b83815260606020820152600061361060608301856132ac565b9050826040830152949350505050565b60008060006060848603121561363557600080fd5b835167ffffffffffffffff8082111561364d57600080fd5b613659878388016133c7565b945060208601519350604086015191508082111561367657600080fd5b50613683868287016133c7565b9150509250925092565b6000845161369f818460208901613317565b60609490941b7fffffffffffffffffffffffffffffffffffffffff0000000000000000000000001691909301908152601481019190915260340192915050565b600060ff821660ff81036136f5576136f56131df565b60010192915050565b606081526000613711606083018661333b565b60208301949094525060400152919050565b8181038181111561024d5761024d6131df565b808202811582820484141761024d5761024d6131df56fea2646970667358221220671a8ffe834ba6273d44b0dbc82971b906b407ac914c0370d0eb08f5bb871b1364736f6c63430008180033","linkReferences":{}},"methodIdentifiers":{"_msgSender()":"119df25f","_msgValue()":"45ec9354","_world()":"e1af802c","claim(bytes32)":"bd66528a","joinGame(bytes32)":"bf474766","newGame(uint8,uint32,uint256)":"eb2098e2","submitSolution(bytes32)":"dc1743fa","supportsInterface(bytes4)":"01ffc9a7","voteRematch(bytes32)":"232328a1"},"id":101}