{"abi":[{"type":"function","name":"_msgSender","inputs":[],"outputs":[{"name":"sender","type":"address","internalType":"address"}],"stateMutability":"view"},{"type":"function","name":"_msgValue","inputs":[],"outputs":[{"name":"value","type":"uint256","internalType":"uint256"}],"stateMutability":"pure"},{"type":"function","name":"_world","inputs":[],"outputs":[{"name":"","type":"address","internalType":"address"}],"stateMutability":"view"},{"type":"function","name":"claim","inputs":[{"name":"gameId","type":"bytes32","internalType":"bytes32"}],"outputs":[],"stateMutability":"nonpayable"},{"type":"function","name":"joinGame","inputs":[{"name":"gameId","type":"bytes32","internalType":"bytes32"}],"outputs":[],"stateMutability":"payable"},{"type":"function","name":"newGame","inputs":[{"name":"gameType","type":"uint8","internalType":"enum Game"},{"name":"submissionWindowSeconds","type":"uint32","internalType":"uint32"},{"name":"inviteExpirationTimestamp","type":"uint256","internalType":"uint256"}],"outputs":[],"stateMutability":"payable"},{"type":"function","name":"submitSolution","inputs":[{"name":"gameId","type":"bytes32","internalType":"bytes32"}],"outputs":[],"stateMutability":"nonpayable"},{"type":"function","name":"supportsInterface","inputs":[{"name":"interfaceId","type":"bytes4","internalType":"bytes4"}],"outputs":[{"name":"","type":"bool","internalType":"bool"}],"stateMutability":"pure"},{"type":"event","name":"Store_SpliceStaticData","inputs":[{"name":"tableId","type":"bytes32","indexed":true,"internalType":"ResourceId"},{"name":"keyTuple","type":"bytes32[]","indexed":false,"internalType":"bytes32[]"},{"name":"start","type":"uint48","indexed":false,"internalType":"uint48"},{"name":"data","type":"bytes","indexed":false,"internalType":"bytes"}],"anonymous":false},{"type":"error","name":"Slice_OutOfBounds","inputs":[{"name":"data","type":"bytes","internalType":"bytes"},{"name":"start","type":"uint256","internalType":"uint256"},{"name":"end","type":"uint256","internalType":"uint256"}]},{"type":"error","name":"World_ResourceNotFound","inputs":[{"name":"resourceId","type":"bytes32","internalType":"ResourceId"},{"name":"resourceIdString","type":"string","internalType":"string"}]}],"bytecode":{"object":"0x608060405234801561001057600080fd5b506131ae806100206000396000f3fe60806040526004361061007b5760003560e01c8063bf4747661161004e578063bf47476614610124578063dc1743fa14610137578063e1af802c14610157578063eb2098e21461016c57600080fd5b806301ffc9a714610080578063119df25f146100b557806345ec9354146100e2578063bd66528a14610102575b600080fd5b34801561008c57600080fd5b506100a061009b366004612b83565b61017f565b60405190151581526020015b60405180910390f35b3480156100c157600080fd5b506100ca610218565b6040516001600160a01b0390911681526020016100ac565b3480156100ee57600080fd5b50604051601f1936013581526020016100ac565b34801561010e57600080fd5b5061012261011d366004612bc5565b610227565b005b610122610132366004612bc5565b6103ca565b34801561014357600080fd5b50610122610152366004612bc5565b610554565b34801561016357600080fd5b506100ca6106f1565b61012261017a366004612bde565b6106fb565b60007fffffffff0000000000000000000000000000000000000000000000000000000082167fb5dee12700000000000000000000000000000000000000000000000000000000148061021257507fffffffff0000000000000000000000000000000000000000000000000000000082167f01ffc9a700000000000000000000000000000000000000000000000000000000145b92915050565b6000610222610761565b905090565b8061023181610793565b6001600160a01b0316610242610218565b6001600160a01b03161480610277575061025b81610874565b6001600160a01b031661026c610218565b6001600160a01b0316145b6102c85760405162461bcd60e51b815260206004820152600f60248201527f4e6f742067616d6520706c61796572000000000000000000000000000000000060448201526064015b60405180910390fd5b60006102d38361090e565b905060006102e0846109e9565b90506102f263ffffffff831682612c42565b42111561030457610304846003610ac7565b600361030f85610bee565b600381111561032057610320612c55565b1461036d5760405162461bcd60e51b815260206004820152601260248201527f47616d65206973206e6f7420616374697665000000000000000000000000000060448201526064016102bf565b600061037885610793565b9050600061038586610874565b905061038f610218565b6001600160a01b0316826001600160a01b0316036103b7576103b2868383610cdc565b6103c2565b6103c2868284610cdc565b505050505050565b60006103d582610bee565b905060006103e283610d74565b905060018260038111156103f8576103f8612c55565b146104455760405162461bcd60e51b815260206004820152601360248201527f47616d65206973206e6f742070656e64696e670000000000000000000000000060448201526064016102bf565b4261044f84610e0e565b1161049c5760405162461bcd60e51b815260206004820152600e60248201527f496e76697465206578706972656400000000000000000000000000000000000060448201526064016102bf565b8036601f19013510156105175760405162461bcd60e51b815260206004820152602160248201527f596f75206d757374206465706f73697420746f206a6f696e207468652067616d60448201527f650000000000000000000000000000000000000000000000000000000000000060648201526084016102bf565b610522836002610ac7565b61052c8342610ea8565b61053e83610538610218565b83610f9b565b61054f8361054a610218565b611060565b505050565b8061055e81610793565b6001600160a01b031661056f610218565b6001600160a01b031614806105a4575061058881610874565b6001600160a01b0316610599610218565b6001600160a01b0316145b6105f05760405162461bcd60e51b815260206004820152600f60248201527f4e6f742067616d6520706c61796572000000000000000000000000000000000060448201526064016102bf565b60006105fb83610bee565b905060006106088461090e565b90506000610615856109e9565b9050600283600381111561062b5761062b612c55565b146106785760405162461bcd60e51b815260206004820152601260248201527f47616d65206973206e6f7420616374697665000000000000000000000000000060448201526064016102bf565b61068863ffffffff831682612c42565b4211156106d75760405162461bcd60e51b815260206004820152601860248201527f5375626d697373696f6e2077696e646f7720636c6f736564000000000000000060448201526064016102bf565b6106ea856106e3610218565b6001611174565b5050505050565b600061022261125c565b6000610705610218565b9050601f193601356000610717611266565b9050610723818761136b565b61072e816001610ac7565b610738818661141f565b610742818561152d565b61074c81846115c1565b610757818484610f9b565b6103c28183611655565b7fffffffffffffffffffffffffffffffffffffffffffffffffffffffffffffffcc36013560601c806107905750335b90565b6040805160018082528183019092526000918291906020808301908036833701905050905082816000815181106107cc576107cc612c81565b60209081029190910181019190915260408051613a3160f11b928101929092526467616d657360d81b60228301527f506c617965723100000000000000000000000000000000000000000000000000603083015260009161086991015b60405160208183030381529060405261084190612c97565b8360007e140100140000000000000000000000000000000000000000000000000000006116e9565b60601c949350505050565b6040805160018082528183019092526000918291906020808301908036833701905050905082816000815181106108ad576108ad612c81565b60209081029190910181019190915260408051613a3160f11b928101929092526467616d657360d81b60228301527f506c61796572320000000000000000000000000000000000000000000000000060308301526000916108699101610829565b60408051600180825281830190925260009182919060208083019080368337019050509050828160008151811061094757610947612c81565b60209081029190910181019190915260408051613a3160f11b818401526467616d657360d81b60228201527f5375626d697373696f6e57696e646f7700000000000000000000000000000000603082015281518082039093018352810190526000906109de906109b690612c97565b8360007e040100040000000000000000000000000000000000000000000000000000006116e9565b60e01c949350505050565b604080516001808252818301909252600091829190602080830190803683370190505090508281600081518110610a2257610a22612c81565b60209081029190910181019190915260408051613a3160f11b928101929092526467616d657360d81b60228301527f47616d65537461727454696d65000000000000000000000000000000000000006030830152600091610abf91015b604051602081830303815290604052610a9790612c97565b8360007e200100200000000000000000000000000000000000000000000000000000006116e9565b949350505050565b604080516001808252818301909252600091602080830190803683370190505090508281600081518110610afd57610afd612c81565b60209081029190910181019190915260408051613a3160f11b818401526467616d657360d81b60228201527f47616d65537461747573000000000000000000000000000000000000000000006030820152815180820390930183528101905261054f90610b6990612c97565b826000856003811115610b7e57610b7e612c55565b604051602001610bb9919060f89190911b7fff0000000000000000000000000000000000000000000000000000000000000016815260010190565b60408051601f198184030181529190527e010100010000000000000000000000000000000000000000000000000000006117a6565b604080516001808252818301909252600091829190602080830190803683370190505090508281600081518110610c2757610c27612c81565b60209081029190910181019190915260408051613a3160f11b928101929092526467616d657360d81b60228301527f47616d65537461747573000000000000000000000000000000000000000000006030830152600091610cc491015b604051602081830303815290604052610c9c90612c97565b8360007e010100010000000000000000000000000000000000000000000000000000006116e9565b905060f881901c6003811115610abf57610abf612c55565b6000610ce88484611856565b90506000610cf68584611856565b9050808015610d03575081155b15610d505760405162461bcd60e51b815260206004820152601060248201527f4e6f7468696e6720746f20636c61696d0000000000000000000000000000000060448201526064016102bf565b818015610d5b575080155b15610d6b576106ea858585611931565b6106ea85611978565b604080516001808252818301909252600091829190602080830190803683370190505090508281600081518110610dad57610dad612c81565b60209081029190910181019190915260408051613a3160f11b928101929092526467616d657360d81b60228301527f427579496e0000000000000000000000000000000000000000000000000000006030830152600091610abf9101610a7f565b604080516001808252818301909252600091829190602080830190803683370190505090508281600081518110610e4757610e47612c81565b60209081029190910181019190915260408051613a3160f11b928101929092526467616d657360d81b60228301527f496e7669746545787069726174696f6e000000000000000000000000000000006030830152600091610abf9101610a7f565b604080516001808252818301909252600091602080830190803683370190505090508281600081518110610ede57610ede612c81565b60209081029190910181019190915260408051613a3160f11b928101929092526467616d657360d81b60228301527f47616d65537461727454696d6500000000000000000000000000000000000000603083015261054f91015b604051602081830303815290604052610f5090612c97565b82600085604051602001610f6691815260200190565b60408051601f198184030181529190527e200100200000000000000000000000000000000000000000000000000000006117a6565b6040805160028082526060820183526000926020830190803683370190505090508381600081518110610fd057610fd0612c81565b602002602001018181525050826001600160a01b031660001b81600181518110610ffc57610ffc612c81565b60209081029190910181019190915260408051613a3160f11b928101929092526467616d657360d81b60228301527f42616c616e636500000000000000000000000000000000000000000000000000603083015261105a9101610f38565b50505050565b60408051600180825281830190925260009160208083019080368337019050509050828160008151811061109657611096612c81565b60209081029190910181019190915260408051613a3160f11b928101929092526467616d657360d81b60228301527f506c617965723200000000000000000000000000000000000000000000000000603083015261054f91015b60405160208183030381529060405261110890612c97565b6040517fffffffffffffffffffffffffffffffffffffffff000000000000000000000000606086901b166020820152839060009060340160408051601f198184030181529190527e140100140000000000000000000000000000000000000000000000000000006117a6565b60408051600280825260608201835260009260208301908036833701905050905083816000815181106111a9576111a9612c81565b602002602001018181525050826001600160a01b031660001b816001815181106111d5576111d5612c81565b60209081029190910181019190915260408051613a3160f11b818401526467616d657360d81b60228201527f536f6c76656400000000000000000000000000000000000000000000000000006030820152815180820390930183528101905261105a9061124190612c97565b82600085604051602001610bb991151560f81b815260010190565b60006102226119a8565b604080517f737900000000000000000000000000000000000000000000000000000000000060208201527f756e69717565456e74697479000000000000000000000000000000000000000060228201527f73797374656d0000000000000000000000000000000000000000000000000000603082015260009161135891016040516020818303038152906040526112fc90612c97565b6040805160048152602481019091526020810180517bffffffffffffffffffffffffffffffffffffffffffffffffffffffff167f490923cd000000000000000000000000000000000000000000000000000000001790526119e7565b8060200190518101906102229190612cbe565b6040805160018082528183019092526000916020808301908036833701905050905082816000815181106113a1576113a1612c81565b60209081029190910181019190915260408051613a3160f11b818401526467616d657360d81b60228201527f47616d65547970650000000000000000000000000000000000000000000000006030820152815180820390930183528101905261054f9061140d90612c97565b826000858015610b7e57610b7e612c55565b60408051600180825281830190925260009160208083019080368337019050509050828160008151811061145557611455612c81565b60209081029190910181019190915260408051613a3160f11b818401526467616d657360d81b60228201527f5375626d697373696f6e57696e646f77000000000000000000000000000000006030820152815180820390930183528101905261054f906114c190612c97565b6040517fffffffff0000000000000000000000000000000000000000000000000000000060e086901b166020820152839060009060240160408051601f198184030181529190527e040100040000000000000000000000000000000000000000000000000000006117a6565b60408051600180825281830190925260009160208083019080368337019050509050828160008151811061156357611563612c81565b60209081029190910181019190915260408051613a3160f11b928101929092526467616d657360d81b60228301527f496e7669746545787069726174696f6e00000000000000000000000000000000603083015261054f9101610f38565b6040805160018082528183019092526000916020808301908036833701905050905082816000815181106115f7576115f7612c81565b60209081029190910181019190915260408051613a3160f11b928101929092526467616d657360d81b60228301527f506c617965723100000000000000000000000000000000000000000000000000603083015261054f91016110f0565b60408051600180825281830190925260009160208083019080368337019050509050828160008151811061168b5761168b612c81565b60209081029190910181019190915260408051613a3160f11b928101929092526467616d657360d81b60228301527f427579496e000000000000000000000000000000000000000000000000000000603083015261054f9101610f38565b6000806116f46119a8565b9050306001600160a01b0382160361171a5761171286868686611b21565b915050610abf565b6040517f8c364d590000000000000000000000000000000000000000000000000000000081526001600160a01b03821690638c364d5990611765908990899089908990600401612d13565b602060405180830381865afa158015611782573d6000803e3d6000fd5b505050506040513d601f19601f820116820180604052508101906117129190612cbe565b60006117b06119a8565b9050306001600160a01b038216036117cf576103b28686868686611b4e565b6040517f390baae00000000000000000000000000000000000000000000000000000000081526001600160a01b0382169063390baae09061181c9089908990899089908990600401612d92565b600060405180830381600087803b15801561183657600080fd5b505af115801561184a573d6000803e3d6000fd5b50505050505050505050565b60408051600280825260608201835260009283929190602083019080368337019050509050838160008151811061188f5761188f612c81565b602002602001018181525050826001600160a01b031660001b816001815181106118bb576118bb612c81565b60209081029190910181019190915260408051613a3160f11b928101929092526467616d657360d81b60228301527f536f6c7665640000000000000000000000000000000000000000000000000000603083015260009161191c9101610c84565b90506119288160f81c90565b95945050505050565b600061193d8484611b63565b9050600061194b8584611b63565b905061195985856000610f9b565b61196585846000610f9b565b6106ea846119738385612c42565b611c29565b6000611982610218565b905060006119908383611b63565b905061199e83836000610f9b565b61054f8282611c29565b7f629a4c26e296b22a8e0856e9f6ecb2d1008d7e00081111962cd175fa7488e175546000906001600160a01b0316806119e2573391505090565b919050565b606060006119f361125c565b90506001600160a01b0381163003611a93576000611a1085611cdb565b5090506001600160a01b038116611a5f5784611a2b86611deb565b6040517ffbf10ce60000000000000000000000000000000000000000000000000000000081526004016102bf929190612dd9565b6000611a79611a6c610761565b36601f1901358488611f28565b9450905080611a8b57611a8b84611f9c565b505050610212565b6040517f3ae7af080000000000000000000000000000000000000000000000000000000081526001600160a01b03821690633ae7af0890611ada9087908790600401612dd9565b6000604051808303816000875af1158015611af9573d6000803e3d6000fd5b505050506040513d6000823e601f3d908101601f19168201604052610abf9190810190612e7a565b6000611928611b308686611fa4565b60ff858116601b0360080285901c16611b498587611ffa565b612033565b6106ea8585611b5d8487611ffa565b85612084565b604080516002808252606082018352600092839291906020830190803683370190505090508381600081518110611b9c57611b9c612c81565b602002602001018181525050826001600160a01b031660001b81600181518110611bc857611bc8612c81565b60209081029190910181019190915260408051613a3160f11b928101929092526467616d657360d81b60228301527f42616c616e63650000000000000000000000000000000000000000000000000060308301526000916119289101610a7f565b611c316106f1565b6001600160a01b03166345afd1997f6e7367616d6573000000000000000000000000000000000000000000000000006040517fffffffff0000000000000000000000000000000000000000000000000000000060e084901b16815260048101919091526001600160a01b038516602482015260448101849052606401600060405180830381600087803b158015611cc757600080fd5b505af11580156103c2573d6000803e3d6000fd5b60408051600180825281830190925260009182918291602080830190803683370190505090508381600081518110611d1557611d15612c81565b60209081029190910181019190915260408051613a3160f11b818401527f776f726c6400000000000000000000000000000000000000000000000000000060228201527f53797374656d73000000000000000000000000000000000000000000000000006030820152815180820390930183528101905260009081908190611dc690611da090612c97565b857e15020014010000000000000000000000000000000000000000000000000000612328565b5050602081015160349091015160609190911c9860f89190911c975095505050505050565b606081601081901b6000611dfe836123f8565b9050827fffffffffffffffffffffffffffff000000000000000000000000000000000000831615611e5957611e547fffffffffffffffffffffffffffff000000000000000000000000000000000000841661240f565b611e90565b6040518060400160405280600681526020017f3c726f6f743e00000000000000000000000000000000000000000000000000008152505b7fffffffffffffffffffffffffffffffff00000000000000000000000000000000831615611ec657611ec18361240f565b611efd565b6040518060400160405280600681526020017f3c726f6f743e00000000000000000000000000000000000000000000000000008152505b604051602001611f0f93929190612eaf565b6040516020818303038152906040529350505050919050565b60006060836001600160a01b0316611f418488886124b3565b604051611f4e9190612f3d565b600060405180830381855af49150503d8060008114611f89576040519150601f19603f3d011682016040523d82523d6000602084013e611f8e565b606091505b509097909650945050505050565b805160208201fd5b60008282604051602001611fb9929190612f59565b60408051601f1981840301815291905280516020909101207f86425bff6b57326c7859e89024fe4f238ca327a1ae4a230180dd2f0e88aaa7d9189392505050565b600080805b8360ff1681101561202b5761202160ff601b83900360080287901c1683612c42565b9150600101611fff565b509392505050565b6000602082106120595760208204840193506020828161205557612055612f95565b0691505b508254600882021b60208290038084111561202b576001850154600882021c82179150509392505050565b7f6f74000000000000000000000000000000000000000000000000000000000000847fffff000000000000000000000000000000000000000000000000000000000000160361210e57837f8c0b5119d4cec7b284c6b1b39252a03d1e2f2d7451a5895562524c113bb952be84848460405161210193929190612fab565b60405180910390a261105a565b600061211a8585611fa4565b90506000612127866124e3565b905060005b81518110156121fc57600082828151811061214957612149612c81565b602002602001015190506121756004826affffffffffffffffffffff19166125c390919063ffffffff16565b156121f3576040517f964f667d000000000000000000000000000000000000000000000000000000008152606082901c9063964f667d906121c0908b908b908b908b90600401612fde565b600060405180830381600087803b1580156121da57600080fd5b505af11580156121ee573d6000803e3d6000fd5b505050505b5060010161212c565b50857f8c0b5119d4cec7b284c6b1b39252a03d1e2f2d7451a5895562524c113bb952be86868660405161223193929190612fab565b60405180910390a261224c828565ffffffffffff16856125e1565b60005b815181101561231f57600082828151811061226c5761226c612c81565b602002602001015190506122986008826affffffffffffffffffffff19166125c390919063ffffffff16565b15612316576040517fa8ba8721000000000000000000000000000000000000000000000000000000008152606082901c9063a8ba8721906122e3908b908b908b908b90600401612fde565b600060405180830381600087803b1580156122fd57600080fd5b505af1158015612311573d6000803e3d6000fd5b505050505b5060010161224f565b50505050505050565b60606000606060006123386119a8565b9050306001600160a01b03821603612361576123558787876125f7565b935093509350506123ef565b6040517f419b58fd0000000000000000000000000000000000000000000000000000000081526001600160a01b0382169063419b58fd906123aa908a908a908a90600401613022565b600060405180830381865afa1580156123c7573d6000803e3d6000fd5b505050506040513d6000823e601f3d908101601f19168201604052612355919081019061304b565b93509350939050565b600061240660706010612c42565b9190911b919050565b606060005b6010811015612474577fffffffffffffffffffffffffffffffff000000000000000000000000000000008316600882021b7fff00000000000000000000000000000000000000000000000000000000000000161561247457600101612414565b604080517fffffffffffffffffffffffffffffffff00000000000000000000000000000000851660208201528151603090910190915281815280610abf565b60608383836040516020016124ca939291906130b8565b60405160208183030381529060405290505b9392505050565b6040805160018082528183019092526060916000919060208083019080368337019050509050828160008151811061251d5761251d612c81565b60209081029190910181019190915260408051613a3160f11b818401527f73746f726500000000000000000000000000000000000000000000000000000060228201527f53746f7265486f6f6b7300000000000000000000000000000000000000000000603082015281518082039093018352810190526000906125ac906125a490612c97565b8360006126ff565b9050610abf6125be8260008451612739565b6127c7565b60008160ff16826125d48560581c90565b1660ff1614905092915050565b61054f838383516125f28560200190565b6127d8565b606060006060600061260885612897565b90506126158787836128ba565b93506000612622866128f3565b905080156126f4576126348888612930565b935066ffffffffffffff841667ffffffffffffffff81111561265857612658612c6b565b6040519080825280601f01601f191660200182016040528015612682576020820181803683370190505b5092506020830160005b828160ff1610156126f15760006126a48b8b84612943565b905060006126c1888460ff166028026038011c64ffffffffff1690565b90506126d082600083876129c3565b6126da8185612c42565b9350505080806126e99061310a565b91505061268c565b50505b505093509350939050565b6060610abf61270f858585612943565b60006127348561271f8989612930565b9060ff166028026038011c64ffffffffff1690565b612a8f565b6000818311806127495750835182115b15612786578383836040517f23230fa30000000000000000000000000000000000000000000000000000000081526004016102bf93929190613129565b602084016127948482612c42565b905060006127a2858561314e565b6fffffffffffffffffffffffffffffffff1660809290921b9190911795945050505050565b606060006124dc8360156000612ab2565b82156128525760208310612802576020830484019350602083816127fe576127fe612f95565b0692505b82156128525760208390036000600019600885021c1990506008850281811c91508351811c905081198754168282161787555081841161284357505061105a565b50600194909401939182900391015b5b602082106128745780518455600190930192601f1990910190602001612853565b811561105a576000600019600884021c8554835182191691161785555050505050565b600060086128a76002602061314e565b6128b19190613161565b9190911c919050565b6060816000036128d957506040805160208101909152600081526124dc565b60006128e58585611fa4565b905061192881600085612a8f565b600060086001806129066002602061314e565b612910919061314e565b61291a919061314e565b6129249190613161565b8260ff911c1692915050565b60006124dc61293f8484612b2d565b5490565b60008383604051602001612958929190612f59565b604051602081830303815290604052805190602001208260f81b7effffffffffffffffffffffffffffffffffffffffffffffffffffffffffffff19167f3b4102da22e32d82fc925482184f16c09fd4281692720b87d124aef6da48a0f1181860001c90509392505050565b8215612a4a57602083106129ed576020830484019350602083816129e9576129e9612f95565b0692505b8215612a4a576020839003600081841015612a105750600019600884021c612a1a565b50600019600882021c5b8554600886021b818451168219821617845250818411612a3b57505061105a565b50600194909401939182900391015b5b60208210612a6c5783548152600190930192601f1990910190602001612a4b565b811561105a576000600019600884021c8251865482191691161782525050505050565b60405160208101601f19603f848401011660405282825261202b858585846129c3565b60606000612ac08560801c90565b90506fffffffffffffffffffffffffffffffff85166000858281612ae657612ae6612f95565b04905060405193506020840160208202810160405281855260005b82811015612b21578451871c825293870193602090910190600101612b01565b50505050509392505050565b60008282604051602001612b42929190612f59565b60408051601f1981840301815291905280516020909101207f14e2fcc58e58e68ec7edc30c8d50dccc3ce2714a623ec81f46b6a63922d76569189392505050565b600060208284031215612b9557600080fd5b81357fffffffff00000000000000000000000000000000000000000000000000000000811681146124dc57600080fd5b600060208284031215612bd757600080fd5b5035919050565b600080600060608486031215612bf357600080fd5b833560018110612c0257600080fd5b9250602084013563ffffffff81168114612c1b57600080fd5b929592945050506040919091013590565b634e487b7160e01b600052601160045260246000fd5b8082018082111561021257610212612c2c565b634e487b7160e01b600052602160045260246000fd5b634e487b7160e01b600052604160045260246000fd5b634e487b7160e01b600052603260045260246000fd5b80516020808301519190811015612cb8576000198160200360031b1b821691505b50919050565b600060208284031215612cd057600080fd5b5051919050565b60008151808452602080850194506020840160005b83811015612d0857815187529582019590820190600101612cec565b509495945050505050565b848152608060208201526000612d2c6080830186612cd7565b60ff949094166040830152506060015292915050565b60005b83811015612d5d578181015183820152602001612d45565b50506000910152565b60008151808452612d7e816020860160208601612d42565b601f01601f19169290920160200192915050565b85815260a060208201526000612dab60a0830187612cd7565b60ff861660408401528281036060840152612dc68186612d66565b9150508260808301529695505050505050565b828152604060208201526000610abf6040830184612d66565b600082601f830112612e0357600080fd5b815167ffffffffffffffff80821115612e1e57612e1e612c6b565b604051601f8301601f19908116603f01168101908282118183101715612e4657612e46612c6b565b81604052838152866020858801011115612e5f57600080fd5b612e70846020830160208901612d42565b9695505050505050565b600060208284031215612e8c57600080fd5b815167ffffffffffffffff811115612ea357600080fd5b610abf84828501612df2565b7fffff0000000000000000000000000000000000000000000000000000000000008416815260007f3a000000000000000000000000000000000000000000000000000000000000008060028401528451612f10816003860160208901612d42565b808401905081600382015284519150612f30826004830160208801612d42565b0160040195945050505050565b60008251612f4f818460208701612d42565b9190910192915050565b8281526000602080830184516020860160005b82811015612f8857815184529284019290840190600101612f6c565b5091979650505050505050565b634e487b7160e01b600052601260045260246000fd5b606081526000612fbe6060830186612cd7565b65ffffffffffff851660208401528281036040840152612e708185612d66565b848152608060208201526000612ff76080830186612cd7565b65ffffffffffff8516604084015282810360608401526130178185612d66565b979650505050505050565b83815260606020820152600061303b6060830185612cd7565b9050826040830152949350505050565b60008060006060848603121561306057600080fd5b835167ffffffffffffffff8082111561307857600080fd5b61308487838801612df2565b94506020860151935060408601519150808211156130a157600080fd5b506130ae86828701612df2565b9150509250925092565b600084516130ca818460208901612d42565b60609490941b7fffffffffffffffffffffffffffffffffffffffff0000000000000000000000001691909301908152601481019190915260340192915050565b600060ff821660ff810361312057613120612c2c565b60010192915050565b60608152600061313c6060830186612d66565b60208301949094525060400152919050565b8181038181111561021257610212612c2c565b808202811582820484141761021257610212612c2c56fea264697066735822122041242f4ef0bed4906bd4ac88ab8c7a6df5e6d38a5dbf9ea52aaf11a786bc5ca864736f6c63430008180033","linkReferences":{}},"methodIdentifiers":{"_msgSender()":"119df25f","_msgValue()":"45ec9354","_world()":"e1af802c","claim(bytes32)":"bd66528a","joinGame(bytes32)":"bf474766","newGame(uint8,uint32,uint256)":"eb2098e2","submitSolution(bytes32)":"dc1743fa","supportsInterface(bytes4)":"01ffc9a7"},"id":97}