{"abi":[{"type":"function","name":"_msgSender","inputs":[],"outputs":[{"name":"sender","type":"address","internalType":"address"}],"stateMutability":"view"},{"type":"function","name":"_msgValue","inputs":[],"outputs":[{"name":"value","type":"uint256","internalType":"uint256"}],"stateMutability":"pure"},{"type":"function","name":"_world","inputs":[],"outputs":[{"name":"","type":"address","internalType":"address"}],"stateMutability":"view"},{"type":"function","name":"cancelPendingGame","inputs":[{"name":"gameId","type":"bytes32","internalType":"bytes32"}],"outputs":[],"stateMutability":"nonpayable"},{"type":"function","name":"claim","inputs":[{"name":"gameId","type":"bytes32","internalType":"bytes32"}],"outputs":[],"stateMutability":"nonpayable"},{"type":"function","name":"joinGame","inputs":[{"name":"gameId","type":"bytes32","internalType":"bytes32"}],"outputs":[],"stateMutability":"payable"},{"type":"function","name":"newGame","inputs":[{"name":"gameType","type":"uint8","internalType":"enum Game"},{"name":"submissionWindowSeconds","type":"uint32","internalType":"uint32"},{"name":"inviteExpirationTimestamp","type":"uint256","internalType":"uint256"}],"outputs":[],"stateMutability":"payable"},{"type":"function","name":"submitSolution","inputs":[{"name":"gameId","type":"bytes32","internalType":"bytes32"}],"outputs":[],"stateMutability":"nonpayable"},{"type":"function","name":"supportsInterface","inputs":[{"name":"interfaceId","type":"bytes4","internalType":"bytes4"}],"outputs":[{"name":"","type":"bool","internalType":"bool"}],"stateMutability":"pure"},{"type":"function","name":"voteRematch","inputs":[{"name":"gameId","type":"bytes32","internalType":"bytes32"}],"outputs":[],"stateMutability":"nonpayable"},{"type":"event","name":"Store_SpliceStaticData","inputs":[{"name":"tableId","type":"bytes32","indexed":true,"internalType":"ResourceId"},{"name":"keyTuple","type":"bytes32[]","indexed":false,"internalType":"bytes32[]"},{"name":"start","type":"uint48","indexed":false,"internalType":"uint48"},{"name":"data","type":"bytes","indexed":false,"internalType":"bytes"}],"anonymous":false},{"type":"error","name":"Slice_OutOfBounds","inputs":[{"name":"data","type":"bytes","internalType":"bytes"},{"name":"start","type":"uint256","internalType":"uint256"},{"name":"end","type":"uint256","internalType":"uint256"}]},{"type":"error","name":"World_ResourceNotFound","inputs":[{"name":"resourceId","type":"bytes32","internalType":"ResourceId"},{"name":"resourceIdString","type":"string","internalType":"string"}]}],"bytecode":{"object":"0x608060405234801561001057600080fd5b506138ab806100206000396000f3fe6080604052600436106100b15760003560e01c8063bd66528a11610069578063dc1743fa1161004e578063dc1743fa146101ad578063e1af802c146101cd578063eb2098e2146101e257600080fd5b8063bd66528a1461017a578063bf4747661461019a57600080fd5b8063232328a11161009a578063232328a11461011857806345ec93541461013a578063b49df3b91461015a57600080fd5b806301ffc9a7146100b6578063119df25f146100eb575b600080fd5b3480156100c257600080fd5b506100d66100d136600461325e565b6101f5565b60405190151581526020015b60405180910390f35b3480156100f757600080fd5b5061010061028e565b6040516001600160a01b0390911681526020016100e2565b34801561012457600080fd5b506101386101333660046132a0565b61029d565b005b34801561014657600080fd5b50604051601f1936013581526020016100e2565b34801561016657600080fd5b506101386101753660046132a0565b610488565b34801561018657600080fd5b506101386101953660046132a0565b610578565b6101386101a83660046132a0565b61066e565b3480156101b957600080fd5b506101386101c83660046132a0565b6107ec565b3480156101d957600080fd5b50610100610980565b6101386101f03660046132b9565b61098a565b60007fffffffff0000000000000000000000000000000000000000000000000000000082167fb5dee12700000000000000000000000000000000000000000000000000000000148061028857507fffffffff0000000000000000000000000000000000000000000000000000000082167f01ffc9a700000000000000000000000000000000000000000000000000000000145b92915050565b60006102986109f0565b905090565b8060006102a861028e565b90506102b382610a22565b6001600160a01b0316816001600160a01b031614806102eb57506102d682610b03565b6001600160a01b0316816001600160a01b0316145b61033c5760405162461bcd60e51b815260206004820152600f60248201527f4e6f742067616d6520706c61796572000000000000000000000000000000000060448201526064015b60405180910390fd5b600061034784610a22565b9050600061035485610b03565b9050600061036186610b9d565b90508061036e8785610c7b565b101580156103855750806103828784610c7b565b10155b6103f75760405162461bcd60e51b815260206004820152602160248201527f43616e6e6f7420726573746172742c206120706c61796572207769746864726560448201527f77000000000000000000000000000000000000000000000000000000000000006064820152608401610333565b61040a8661040361028e565b6001610d4a565b6104148684610e73565b801561042557506104258683610e73565b156104805761043686846000610f81565b61044286836000610f81565b61044e86846000610d4a565b61045a86836000610d4a565b6104778661046788611040565b61047290600161331d565b61111b565b61048086611229565b505050505050565b61049181610a22565b6001600160a01b03166104a261028e565b6001600160a01b0316146104f85760405162461bcd60e51b815260206004820152601760248201527f4f6e6c792063726561746f722063616e2063616e63656c0000000000000000006044820152606401610333565b60016105038261123e565b60038111156105145761051461333f565b146105615760405162461bcd60e51b815260206004820152601360248201527f47616d65206973206e6f742070656e64696e67000000000000000000000000006044820152606401610333565b61056c8160006112f0565b610575816113e2565b50565b80600061058361028e565b905061058e82610a22565b6001600160a01b0316816001600160a01b031614806105c657506105b182610b03565b6001600160a01b0316816001600160a01b0316145b6106125760405162461bcd60e51b815260206004820152600f60248201527f4e6f742067616d6520706c6179657200000000000000000000000000000000006044820152606401610333565b600061061d84610a22565b9050600061062a85610b03565b905061063461028e565b6001600160a01b0316826001600160a01b03160361065c57610657858383611412565b610667565b610667858284611412565b5050505050565b60006106798261123e565b9050600061068683610b9d565b9050600182600381111561069c5761069c61333f565b146106e95760405162461bcd60e51b815260206004820152601360248201527f47616d65206973206e6f742070656e64696e67000000000000000000000000006044820152606401610333565b426106f384611568565b116107405760405162461bcd60e51b815260206004820152600e60248201527f496e7669746520657870697265640000000000000000000000000000000000006044820152606401610333565b8036601f19013510156107bb5760405162461bcd60e51b815260206004820152602160248201527f596f75206d757374206465706f73697420746f206a6f696e207468652067616d60448201527f65000000000000000000000000000000000000000000000000000000000000006064820152608401610333565b6107cd836107c761028e565b83611602565b6107de836107d961028e565b611720565b6107e783611229565b505050565b8060006107f761028e565b905061080282610a22565b6001600160a01b0316816001600160a01b0316148061083a575061082582610b03565b6001600160a01b0316816001600160a01b0316145b6108865760405162461bcd60e51b815260206004820152600f60248201527f4e6f742067616d6520706c6179657200000000000000000000000000000000006044820152606401610333565b60006108918461123e565b9050600061089e85611834565b905060006108ab8661190f565b905060028360038111156108c1576108c161333f565b1461090e5760405162461bcd60e51b815260206004820152601260248201527f47616d65206973206e6f742061637469766500000000000000000000000000006044820152606401610333565b61091e63ffffffff831682613355565b42111561096d5760405162461bcd60e51b815260206004820152601860248201527f5375626d697373696f6e2077696e646f7720636c6f73656400000000000000006044820152606401610333565b6104808661097961028e565b6001610f81565b60006102986119a9565b600061099461028e565b9050601f1936013560006109a66119b3565b90506109b28187611ab8565b6109bd8160016112f0565b6109c78186611b6c565b6109d18185611c7a565b6109db8184611d0e565b6109e6818484611602565b6104808183611da2565b7fffffffffffffffffffffffffffffffffffffffffffffffffffffffffffffffcc36013560601c80610a1f5750335b90565b604080516001808252818301909252600091829190602080830190803683370190505090508281600081518110610a5b57610a5b61337e565b60209081029190910181019190915260408051613a3160f11b928101929092526467616d657360d81b60228301527f506c6179657231000000000000000000000000000000000000000000000000006030830152600091610af891015b604051602081830303815290604052610ad090613394565b8360007e14010014000000000000000000000000000000000000000000000000000000611e36565b60601c949350505050565b604080516001808252818301909252600091829190602080830190803683370190505090508281600081518110610b3c57610b3c61337e565b60209081029190910181019190915260408051613a3160f11b928101929092526467616d657360d81b60228301527f506c6179657232000000000000000000000000000000000000000000000000006030830152600091610af89101610ab8565b604080516001808252818301909252600091829190602080830190803683370190505090508281600081518110610bd657610bd661337e565b60209081029190910181019190915260408051613a3160f11b928101929092526467616d657360d81b60228301527f427579496e0000000000000000000000000000000000000000000000000000006030830152600091610c7391015b604051602081830303815290604052610c4b90613394565b8360007e20010020000000000000000000000000000000000000000000000000000000611e36565b949350505050565b604080516002808252606082018352600092839291906020830190803683370190505090508381600081518110610cb457610cb461337e565b602002602001018181525050826001600160a01b031660001b81600181518110610ce057610ce061337e565b60209081029190910181019190915260408051613a3160f11b928101929092526467616d657360d81b60228301527f42616c616e6365000000000000000000000000000000000000000000000000006030830152600091610d419101610c33565b95945050505050565b6040805160028082526060820183526000926020830190803683370190505090508381600081518110610d7f57610d7f61337e565b602002602001018181525050826001600160a01b031660001b81600181518110610dab57610dab61337e565b60209081029190910181019190915260408051613a3160f11b928101929092526467616d657360d81b60228301527f566f746552656d617463680000000000000000000000000000000000000000006030830152610e6d91015b604051602081830303815290604052610e1d90613394565b82600085604051602001610e3891151560f81b815260010190565b60408051601f198184030181529190527e01010001000000000000000000000000000000000000000000000000000000611ef3565b50505050565b604080516002808252606082018352600092839291906020830190803683370190505090508381600081518110610eac57610eac61337e565b602002602001018181525050826001600160a01b031660001b81600181518110610ed857610ed861337e565b60209081029190910181019190915260408051613a3160f11b928101929092526467616d657360d81b60228301527f566f746552656d617463680000000000000000000000000000000000000000006030830152600091610f7591015b604051602081830303815290604052610f4d90613394565b8360007e01010001000000000000000000000000000000000000000000000000000000611e36565b9050610d418160f81c90565b6040805160028082526060820183526000926020830190803683370190505090508381600081518110610fb657610fb661337e565b602002602001018181525050826001600160a01b031660001b81600181518110610fe257610fe261337e565b60209081029190910181019190915260408051613a3160f11b928101929092526467616d657360d81b60228301527f536f6c76656400000000000000000000000000000000000000000000000000006030830152610e6d9101610e05565b6040805160018082528183019092526000918291906020808301908036833701905050905082816000815181106110795761107961337e565b60209081029190910181019190915260408051613a3160f11b818401526467616d657360d81b60228201527f52656d61746368436f756e74000000000000000000000000000000000000000060308201528151808203909301835281019052600090611110906110e890613394565b8360007e02010002000000000000000000000000000000000000000000000000000000611e36565b60f01c949350505050565b6040805160018082528183019092526000916020808301908036833701905050905082816000815181106111515761115161337e565b60209081029190910181019190915260408051613a3160f11b818401526467616d657360d81b60228201527f52656d61746368436f756e740000000000000000000000000000000000000000603082015281518082039093018352810190526107e7906111bd90613394565b6040517fffff00000000000000000000000000000000000000000000000000000000000060f086901b166020820152839060009060220160408051601f198184030181529190527e02010002000000000000000000000000000000000000000000000000000000611ef3565b6112348160026112f0565b6105758142611fa8565b6040805160018082528183019092526000918291906020808301908036833701905050905082816000815181106112775761127761337e565b60209081029190910181019190915260408051613a3160f11b928101929092526467616d657360d81b60228301527f47616d655374617475730000000000000000000000000000000000000000000060308301526000916112d89101610f35565b905060f881901c6003811115610c7357610c7361333f565b6040805160018082528183019092526000916020808301908036833701905050905082816000815181106113265761132661337e565b60209081029190910181019190915260408051613a3160f11b818401526467616d657360d81b60228201527f47616d6553746174757300000000000000000000000000000000000000000000603082015281518082039093018352810190526107e79061139290613394565b8260008560038111156113a7576113a761333f565b604051602001610e38919060f89190911b7fff0000000000000000000000000000000000000000000000000000000000000016815260010190565b60006113ec61028e565b905060006113fa8383610c7b565b905061140883836000611602565b6107e7828261203c565b600061141e84846120ee565b9050600061142c85846120ee565b9050600061143986611834565b905060006114468761190f565b9050600061145a63ffffffff841683613355565b42118061146c575084801561146c5750835b9050806114bb5760405162461bcd60e51b815260206004820152600c60248201527f43616e6e6f7420636c61696d00000000000000000000000000000000000000006044820152606401610333565b8380156114c6575084155b156115135760405162461bcd60e51b815260206004820152601060248201527f4e6f7468696e6720746f20636c61696d000000000000000000000000000000006044820152606401610333565b84801561151e575083155b156115435761152e8888886121b4565b6115398860036112f0565b5050505050505050565b61154c886113e2565b6115568887610c7b565b600003611539576115398860036112f0565b6040805160018082528183019092526000918291906020808301908036833701905050905082816000815181106115a1576115a161337e565b60209081029190910181019190915260408051613a3160f11b928101929092526467616d657360d81b60228301527f496e7669746545787069726174696f6e000000000000000000000000000000006030830152600091610c739101610c33565b60408051600280825260608201835260009260208301908036833701905050905083816000815181106116375761163761337e565b602002602001018181525050826001600160a01b031660001b816001815181106116635761166361337e565b60209081029190910181019190915260408051613a3160f11b928101929092526467616d657360d81b60228301527f42616c616e6365000000000000000000000000000000000000000000000000006030830152610e6d91015b6040516020818303038152906040526116d590613394565b826000856040516020016116eb91815260200190565b60408051601f198184030181529190527e20010020000000000000000000000000000000000000000000000000000000611ef3565b6040805160018082528183019092526000916020808301908036833701905050905082816000815181106117565761175661337e565b60209081029190910181019190915260408051613a3160f11b928101929092526467616d657360d81b60228301527f506c61796572320000000000000000000000000000000000000000000000000060308301526107e791015b6040516020818303038152906040526117c890613394565b6040517fffffffffffffffffffffffffffffffffffffffff000000000000000000000000606086901b166020820152839060009060340160408051601f198184030181529190527e14010014000000000000000000000000000000000000000000000000000000611ef3565b60408051600180825281830190925260009182919060208083019080368337019050509050828160008151811061186d5761186d61337e565b60209081029190910181019190915260408051613a3160f11b818401526467616d657360d81b60228201527f5375626d697373696f6e57696e646f770000000000000000000000000000000060308201528151808203909301835281019052600090611904906118dc90613394565b8360007e04010004000000000000000000000000000000000000000000000000000000611e36565b60e01c949350505050565b6040805160018082528183019092526000918291906020808301908036833701905050905082816000815181106119485761194861337e565b60209081029190910181019190915260408051613a3160f11b928101929092526467616d657360d81b60228301527f47616d65537461727454696d65000000000000000000000000000000000000006030830152600091610c739101610c33565b60006102986121fb565b604080517f737900000000000000000000000000000000000000000000000000000000000060208201527f756e69717565456e74697479000000000000000000000000000000000000000060228201527f73797374656d00000000000000000000000000000000000000000000000000006030820152600091611aa59101604051602081830303815290604052611a4990613394565b6040805160048152602481019091526020810180517bffffffffffffffffffffffffffffffffffffffffffffffffffffffff167f490923cd0000000000000000000000000000000000000000000000000000000017905261223a565b80602001905181019061029891906133bb565b604080516001808252818301909252600091602080830190803683370190505090508281600081518110611aee57611aee61337e565b60209081029190910181019190915260408051613a3160f11b818401526467616d657360d81b60228201527f47616d6554797065000000000000000000000000000000000000000000000000603082015281518082039093018352810190526107e790611b5a90613394565b8260008580156113a7576113a761333f565b604080516001808252818301909252600091602080830190803683370190505090508281600081518110611ba257611ba261337e565b60209081029190910181019190915260408051613a3160f11b818401526467616d657360d81b60228201527f5375626d697373696f6e57696e646f7700000000000000000000000000000000603082015281518082039093018352810190526107e790611c0e90613394565b6040517fffffffff0000000000000000000000000000000000000000000000000000000060e086901b166020820152839060009060240160408051601f198184030181529190527e04010004000000000000000000000000000000000000000000000000000000611ef3565b604080516001808252818301909252600091602080830190803683370190505090508281600081518110611cb057611cb061337e565b60209081029190910181019190915260408051613a3160f11b928101929092526467616d657360d81b60228301527f496e7669746545787069726174696f6e0000000000000000000000000000000060308301526107e791016116bd565b604080516001808252818301909252600091602080830190803683370190505090508281600081518110611d4457611d4461337e565b60209081029190910181019190915260408051613a3160f11b928101929092526467616d657360d81b60228301527f506c61796572310000000000000000000000000000000000000000000000000060308301526107e791016117b0565b604080516001808252818301909252600091602080830190803683370190505090508281600081518110611dd857611dd861337e565b60209081029190910181019190915260408051613a3160f11b928101929092526467616d657360d81b60228301527f427579496e00000000000000000000000000000000000000000000000000000060308301526107e791016116bd565b600080611e416121fb565b9050306001600160a01b03821603611e6757611e5f86868686612374565b915050610c73565b6040517f8c364d590000000000000000000000000000000000000000000000000000000081526001600160a01b03821690638c364d5990611eb2908990899089908990600401613410565b602060405180830381865afa158015611ecf573d6000803e3d6000fd5b505050506040513d601f19601f82011682018060405250810190611e5f91906133bb565b6000611efd6121fb565b9050306001600160a01b03821603611f2157611f1c86868686866123a1565b610480565b6040517f390baae00000000000000000000000000000000000000000000000000000000081526001600160a01b0382169063390baae090611f6e908990899089908990899060040161348f565b600060405180830381600087803b158015611f8857600080fd5b505af1158015611f9c573d6000803e3d6000fd5b50505050505050505050565b604080516001808252818301909252600091602080830190803683370190505090508281600081518110611fde57611fde61337e565b60209081029190910181019190915260408051613a3160f11b928101929092526467616d657360d81b60228301527f47616d65537461727454696d650000000000000000000000000000000000000060308301526107e791016116bd565b612044610980565b6001600160a01b03166345afd1997f6e7367616d6573000000000000000000000000000000000000000000000000006040517fffffffff0000000000000000000000000000000000000000000000000000000060e084901b16815260048101919091526001600160a01b038516602482015260448101849052606401600060405180830381600087803b1580156120da57600080fd5b505af1158015610480573d6000803e3d6000fd5b6040805160028082526060820183526000928392919060208301908036833701905050905083816000815181106121275761212761337e565b602002602001018181525050826001600160a01b031660001b816001815181106121535761215361337e565b60209081029190910181019190915260408051613a3160f11b928101929092526467616d657360d81b60228301527f536f6c76656400000000000000000000000000000000000000000000000000006030830152600091610f759101610f35565b60006121c08484610c7b565b905060006121ce8584610c7b565b90506121dc85856000611602565b6121e885846000611602565b610667846121f68385613355565b61203c565b7f629a4c26e296b22a8e0856e9f6ecb2d1008d7e00081111962cd175fa7488e175546000906001600160a01b031680612235573391505090565b919050565b606060006122466119a9565b90506001600160a01b03811630036122e6576000612263856123b6565b5090506001600160a01b0381166122b2578461227e866124c6565b6040517ffbf10ce60000000000000000000000000000000000000000000000000000000081526004016103339291906134d6565b60006122cc6122bf6109f0565b36601f1901358488612603565b94509050806122de576122de84612677565b505050610288565b6040517f3ae7af080000000000000000000000000000000000000000000000000000000081526001600160a01b03821690633ae7af089061232d90879087906004016134d6565b6000604051808303816000875af115801561234c573d6000803e3d6000fd5b505050506040513d6000823e601f3d908101601f19168201604052610c739190810190613577565b6000610d41612383868661267f565b60ff858116601b0360080285901c1661239c85876126d5565b61270e565b61066785856123b084876126d5565b8561275f565b604080516001808252818301909252600091829182916020808301908036833701905050905083816000815181106123f0576123f061337e565b60209081029190910181019190915260408051613a3160f11b818401527f776f726c6400000000000000000000000000000000000000000000000000000060228201527f53797374656d730000000000000000000000000000000000000000000000000060308201528151808203909301835281019052600090819081906124a19061247b90613394565b857e15020014010000000000000000000000000000000000000000000000000000612a03565b5050602081015160349091015160609190911c9860f89190911c975095505050505050565b606081601081901b60006124d983612ad3565b9050827fffffffffffffffffffffffffffff0000000000000000000000000000000000008316156125345761252f7fffffffffffffffffffffffffffff0000000000000000000000000000000000008416612aea565b61256b565b6040518060400160405280600681526020017f3c726f6f743e00000000000000000000000000000000000000000000000000008152505b7fffffffffffffffffffffffffffffffff000000000000000000000000000000008316156125a15761259c83612aea565b6125d8565b6040518060400160405280600681526020017f3c726f6f743e00000000000000000000000000000000000000000000000000008152505b6040516020016125ea939291906135ac565b6040516020818303038152906040529350505050919050565b60006060836001600160a01b031661261c848888612b8e565b604051612629919061363a565b600060405180830381855af49150503d8060008114612664576040519150601f19603f3d011682016040523d82523d6000602084013e612669565b606091505b509097909650945050505050565b805160208201fd5b60008282604051602001612694929190613656565b60408051601f1981840301815291905280516020909101207f86425bff6b57326c7859e89024fe4f238ca327a1ae4a230180dd2f0e88aaa7d9189392505050565b600080805b8360ff16811015612706576126fc60ff601b83900360080287901c1683613355565b91506001016126da565b509392505050565b6000602082106127345760208204840193506020828161273057612730613692565b0691505b508254600882021b602082900380841115612706576001850154600882021c82179150509392505050565b7f6f74000000000000000000000000000000000000000000000000000000000000847fffff00000000000000000000000000000000000000000000000000000000000016036127e957837f8c0b5119d4cec7b284c6b1b39252a03d1e2f2d7451a5895562524c113bb952be8484846040516127dc939291906136a8565b60405180910390a2610e6d565b60006127f5858561267f565b9050600061280286612bbe565b905060005b81518110156128d75760008282815181106128245761282461337e565b602002602001015190506128506004826affffffffffffffffffffff1916612c9e90919063ffffffff16565b156128ce576040517f964f667d000000000000000000000000000000000000000000000000000000008152606082901c9063964f667d9061289b908b908b908b908b906004016136db565b600060405180830381600087803b1580156128b557600080fd5b505af11580156128c9573d6000803e3d6000fd5b505050505b50600101612807565b50857f8c0b5119d4cec7b284c6b1b39252a03d1e2f2d7451a5895562524c113bb952be86868660405161290c939291906136a8565b60405180910390a2612927828565ffffffffffff1685612cbc565b60005b81518110156129fa5760008282815181106129475761294761337e565b602002602001015190506129736008826affffffffffffffffffffff1916612c9e90919063ffffffff16565b156129f1576040517fa8ba8721000000000000000000000000000000000000000000000000000000008152606082901c9063a8ba8721906129be908b908b908b908b906004016136db565b600060405180830381600087803b1580156129d857600080fd5b505af11580156129ec573d6000803e3d6000fd5b505050505b5060010161292a565b50505050505050565b6060600060606000612a136121fb565b9050306001600160a01b03821603612a3c57612a30878787612cd2565b93509350935050612aca565b6040517f419b58fd0000000000000000000000000000000000000000000000000000000081526001600160a01b0382169063419b58fd90612a85908a908a908a9060040161371f565b600060405180830381865afa158015612aa2573d6000803e3d6000fd5b505050506040513d6000823e601f3d908101601f19168201604052612a309190810190613748565b93509350939050565b6000612ae160706010613355565b9190911b919050565b606060005b6010811015612b4f577fffffffffffffffffffffffffffffffff000000000000000000000000000000008316600882021b7fff000000000000000000000000000000000000000000000000000000000000001615612b4f57600101612aef565b604080517fffffffffffffffffffffffffffffffff00000000000000000000000000000000851660208201528151603090910190915281815280610c73565b6060838383604051602001612ba5939291906137b5565b60405160208183030381529060405290505b9392505050565b60408051600180825281830190925260609160009190602080830190803683370190505090508281600081518110612bf857612bf861337e565b60209081029190910181019190915260408051613a3160f11b818401527f73746f726500000000000000000000000000000000000000000000000000000060228201527f53746f7265486f6f6b730000000000000000000000000000000000000000000060308201528151808203909301835281019052600090612c8790612c7f90613394565b836000612dda565b9050610c73612c998260008451612e14565b612ea2565b60008160ff1682612caf8560581c90565b1660ff1614905092915050565b6107e783838351612ccd8560200190565b612eb3565b6060600060606000612ce385612f72565b9050612cf0878783612f95565b93506000612cfd86612fce565b90508015612dcf57612d0f888861300b565b935066ffffffffffffff841667ffffffffffffffff811115612d3357612d33613368565b6040519080825280601f01601f191660200182016040528015612d5d576020820181803683370190505b5092506020830160005b828160ff161015612dcc576000612d7f8b8b8461301e565b90506000612d9c888460ff166028026038011c64ffffffffff1690565b9050612dab826000838761309e565b612db58185613355565b935050508080612dc490613807565b915050612d67565b50505b505093509350939050565b6060610c73612dea85858561301e565b6000612e0f85612dfa898961300b565b9060ff166028026038011c64ffffffffff1690565b61316a565b600081831180612e245750835182115b15612e61578383836040517f23230fa300000000000000000000000000000000000000000000000000000000815260040161033393929190613826565b60208401612e6f8482613355565b90506000612e7d858561384b565b6fffffffffffffffffffffffffffffffff1660809290921b9190911795945050505050565b60606000612bb7836015600061318d565b8215612f2d5760208310612edd57602083048401935060208381612ed957612ed9613692565b0692505b8215612f2d5760208390036000600019600885021c1990506008850281811c91508351811c9050811987541682821617875550818411612f1e575050610e6d565b50600194909401939182900391015b5b60208210612f4f5780518455600190930192601f1990910190602001612f2e565b8115610e6d576000600019600884021c8554835182191691161785555050505050565b60006008612f826002602061384b565b612f8c919061385e565b9190911c919050565b606081600003612fb45750604080516020810190915260008152612bb7565b6000612fc0858561267f565b9050610d418160008561316a565b60006008600180612fe16002602061384b565b612feb919061384b565b612ff5919061384b565b612fff919061385e565b8260ff911c1692915050565b6000612bb761301a8484613208565b5490565b60008383604051602001613033929190613656565b604051602081830303815290604052805190602001208260f81b7effffffffffffffffffffffffffffffffffffffffffffffffffffffffffffff19167f3b4102da22e32d82fc925482184f16c09fd4281692720b87d124aef6da48a0f1181860001c90509392505050565b821561312557602083106130c8576020830484019350602083816130c4576130c4613692565b0692505b82156131255760208390036000818410156130eb5750600019600884021c6130f5565b50600019600882021c5b8554600886021b818451168219821617845250818411613116575050610e6d565b50600194909401939182900391015b5b602082106131475783548152600190930192601f1990910190602001613126565b8115610e6d576000600019600884021c8251865482191691161782525050505050565b60405160208101601f19603f84840101166040528282526127068585858461309e565b6060600061319b8560801c90565b90506fffffffffffffffffffffffffffffffff851660008582816131c1576131c1613692565b04905060405193506020840160208202810160405281855260005b828110156131fc578451871c8252938701936020909101906001016131dc565b50505050509392505050565b6000828260405160200161321d929190613656565b60408051601f1981840301815291905280516020909101207f14e2fcc58e58e68ec7edc30c8d50dccc3ce2714a623ec81f46b6a63922d76569189392505050565b60006020828403121561327057600080fd5b81357fffffffff0000000000000000000000000000000000000000000000000000000081168114612bb757600080fd5b6000602082840312156132b257600080fd5b5035919050565b6000806000606084860312156132ce57600080fd5b8335600181106132dd57600080fd5b9250602084013563ffffffff811681146132f657600080fd5b929592945050506040919091013590565b634e487b7160e01b600052601160045260246000fd5b61ffff81811683821601908082111561333857613338613307565b5092915050565b634e487b7160e01b600052602160045260246000fd5b8082018082111561028857610288613307565b634e487b7160e01b600052604160045260246000fd5b634e487b7160e01b600052603260045260246000fd5b805160208083015191908110156133b5576000198160200360031b1b821691505b50919050565b6000602082840312156133cd57600080fd5b5051919050565b60008151808452602080850194506020840160005b83811015613405578151875295820195908201906001016133e9565b509495945050505050565b84815260806020820152600061342960808301866133d4565b60ff949094166040830152506060015292915050565b60005b8381101561345a578181015183820152602001613442565b50506000910152565b6000815180845261347b81602086016020860161343f565b601f01601f19169290920160200192915050565b85815260a0602082015260006134a860a08301876133d4565b60ff8616604084015282810360608401526134c38186613463565b9150508260808301529695505050505050565b828152604060208201526000610c736040830184613463565b600082601f83011261350057600080fd5b815167ffffffffffffffff8082111561351b5761351b613368565b604051601f8301601f19908116603f0116810190828211818310171561354357613543613368565b8160405283815286602085880101111561355c57600080fd5b61356d84602083016020890161343f565b9695505050505050565b60006020828403121561358957600080fd5b815167ffffffffffffffff8111156135a057600080fd5b610c73848285016134ef565b7fffff0000000000000000000000000000000000000000000000000000000000008416815260007f3a00000000000000000000000000000000000000000000000000000000000000806002840152845161360d81600386016020890161343f565b80840190508160038201528451915061362d82600483016020880161343f565b0160040195945050505050565b6000825161364c81846020870161343f565b9190910192915050565b8281526000602080830184516020860160005b8281101561368557815184529284019290840190600101613669565b5091979650505050505050565b634e487b7160e01b600052601260045260246000fd5b6060815260006136bb60608301866133d4565b65ffffffffffff85166020840152828103604084015261356d8185613463565b8481526080602082015260006136f460808301866133d4565b65ffffffffffff8516604084015282810360608401526137148185613463565b979650505050505050565b83815260606020820152600061373860608301856133d4565b9050826040830152949350505050565b60008060006060848603121561375d57600080fd5b835167ffffffffffffffff8082111561377557600080fd5b613781878388016134ef565b945060208601519350604086015191508082111561379e57600080fd5b506137ab868287016134ef565b9150509250925092565b600084516137c781846020890161343f565b60609490941b7fffffffffffffffffffffffffffffffffffffffff0000000000000000000000001691909301908152601481019190915260340192915050565b600060ff821660ff810361381d5761381d613307565b60010192915050565b6060815260006138396060830186613463565b60208301949094525060400152919050565b8181038181111561028857610288613307565b80820281158282048414176102885761028861330756fea2646970667358221220519eaf0d9d8fac7c10e5088a68e1533c9f51285543df7529c28834f0f2ad358a64736f6c63430008180033","linkReferences":{}},"methodIdentifiers":{"_msgSender()":"119df25f","_msgValue()":"45ec9354","_world()":"e1af802c","cancelPendingGame(bytes32)":"b49df3b9","claim(bytes32)":"bd66528a","joinGame(bytes32)":"bf474766","newGame(uint8,uint32,uint256)":"eb2098e2","submitSolution(bytes32)":"dc1743fa","supportsInterface(bytes4)":"01ffc9a7","voteRematch(bytes32)":"232328a1"},"id":99}