{"abi":[{"type":"function","name":"_msgSender","inputs":[],"outputs":[{"name":"sender","type":"address","internalType":"address"}],"stateMutability":"view"},{"type":"function","name":"_msgValue","inputs":[],"outputs":[{"name":"value","type":"uint256","internalType":"uint256"}],"stateMutability":"pure"},{"type":"function","name":"_world","inputs":[],"outputs":[{"name":"","type":"address","internalType":"address"}],"stateMutability":"view"},{"type":"function","name":"supportsInterface","inputs":[{"name":"interfaceId","type":"bytes4","internalType":"bytes4"}],"outputs":[{"name":"","type":"bool","internalType":"bool"}],"stateMutability":"pure"}],"bytecode":{"object":"0x608060405234801561001057600080fd5b50610295806100206000396000f3fe608060405234801561001057600080fd5b506004361061004c5760003560e01c806301ffc9a714610051578063119df25f1461007957806345ec9354146100a6578063e1af802c146100d7575b600080fd5b61006461005f366004610216565b6100df565b60405190151581526020015b60405180910390f35b610081610178565b60405173ffffffffffffffffffffffffffffffffffffffff9091168152602001610070565b6040517fffffffffffffffffffffffffffffffffffffffffffffffffffffffffffffffe03601358152602001610070565b610081610187565b60007fffffffff0000000000000000000000000000000000000000000000000000000082167fb5dee12700000000000000000000000000000000000000000000000000000000148061017257507fffffffff0000000000000000000000000000000000000000000000000000000082167f01ffc9a700000000000000000000000000000000000000000000000000000000145b92915050565b6000610182610191565b905090565b60006101826101c3565b7fffffffffffffffffffffffffffffffffffffffffffffffffffffffffffffffcc36013560601c806101c05750335b90565b60006101826000807f629a4c26e296b22a8e0856e9f6ecb2d1008d7e00081111962cd175fa7488e1755473ffffffffffffffffffffffffffffffffffffffff16905080610211573391505090565b919050565b60006020828403121561022857600080fd5b81357fffffffff000000000000000000000000000000000000000000000000000000008116811461025857600080fd5b939250505056fea2646970667358221220453872aa5527bee9a4e2518f1aa481951f001f6cd66c5e9ee5e96a077cc74ac364736f6c63430008180033","linkReferences":{}},"methodIdentifiers":{"_msgSender()":"119df25f","_msgValue()":"45ec9354","_world()":"e1af802c","supportsInterface(bytes4)":"01ffc9a7"},"id":46}