{"abi":[{"type":"function","name":"getEthSignedMessageHash","inputs":[{"name":"messageHash","type":"bytes32","internalType":"bytes32"}],"outputs":[{"name":"","type":"bytes32","internalType":"bytes32"}],"stateMutability":"pure"},{"type":"function","name":"getMessageHash","inputs":[{"name":"gameId","type":"bytes32","internalType":"bytes32"},{"name":"player","type":"address","internalType":"address"},{"name":"solutionIndex","type":"uint32","internalType":"uint32"}],"outputs":[{"name":"","type":"bytes32","internalType":"bytes32"}],"stateMutability":"pure"}],"bytecode":{"object":"0x61070b61003a600b82828239805160001a60731461002d57634e487b7160e01b600052600060045260246000fd5b30600052607381538281f3fe730000000000000000000000000000000000000000301460806040526004361061004b5760003560e01c80631984979a14610050578063fa54080114610085578063fb5c8f0b146100f4575b600080fd5b81801561005c57600080fd5b5061007061006b366004610544565b610181565b60405190151581526020015b60405180910390f35b6100e6610093366004610631565b6040517f19457468657265756d205369676e6564204d6573736167653a0a3332000000006020820152603c8101829052600090605c01604051602081830303815290604052805190602001209050919050565b60405190815260200161007c565b6100e661010236600461064a565b6040805160208082019590955260609390931b7fffffffffffffffffffffffffffffffffffffffff000000000000000000000000168382015260e09190911b7fffffffff000000000000000000000000000000000000000000000000000000001660548301528051603881840301815260589092019052805191012090565b604080516020808201889052606087901b7fffffffffffffffffffffffffffffffffffffffff000000000000000000000000168284015260e086901b7fffffffff00000000000000000000000000000000000000000000000000000000166054830152825160388184030181526058830184528051908201207f19457468657265756d205369676e6564204d6573736167653a0a333200000000607884015260948084018290528451808503909101815260b4909301909352815191012060009190600061024f8286610279565b73ffffffffffffffffffffffffffffffffffffffff90811690871614935050505095945050505050565b60008060008061028885610342565b92509250925061029a8160ff166103d4565b6102c4836040516020016102b091815260200190565b60405160208183030381529060405261044a565b6102da826040516020016102b091815260200190565b60408051600081526020810180835288905260ff831691810191909152606081018490526080810183905260019060a0016020604051602081039080840390855afa15801561032d573d6000803e3d6000fd5b5050604051601f190151979650505050505050565b600080600083516041146103b6576040517f08c379a000000000000000000000000000000000000000000000000000000000815260206004820152601860248201527f696e76616c6964207369676e6174757265206c656e6774680000000000000000604482015260640160405180910390fd5b50505060208101516040820151606090920151909260009190911a90565b610447816040516024016103ea91815260200190565b60408051601f198184030181529190526020810180517bffffffffffffffffffffffffffffffffffffffffffffffffffffffff167ff5b1bba9000000000000000000000000000000000000000000000000000000001790526104b7565b50565b6104478160405160240161045e9190610686565b60408051601f198184030181529190526020810180517bffffffffffffffffffffffffffffffffffffffffffffffffffffffff167f0be77f56000000000000000000000000000000000000000000000000000000001790525b80516a636f6e736f6c652e6c6f67602083016000808483855afa5050505050565b803573ffffffffffffffffffffffffffffffffffffffff811681146104fc57600080fd5b919050565b803563ffffffff811681146104fc57600080fd5b7f4e487b7100000000000000000000000000000000000000000000000000000000600052604160045260246000fd5b600080600080600060a0868803121561055c57600080fd5b8535945061056c602087016104d8565b935061057a60408701610501565b9250610588606087016104d8565b9150608086013567ffffffffffffffff808211156105a557600080fd5b818801915088601f8301126105b957600080fd5b8135818111156105cb576105cb610515565b604051601f8201601f19908116603f011681019083821181831017156105f3576105f3610515565b816040528281528b602084870101111561060c57600080fd5b8260208601602083013760006020848301015280955050505050509295509295909350565b60006020828403121561064357600080fd5b5035919050565b60008060006060848603121561065f57600080fd5b8335925061066f602085016104d8565b915061067d60408501610501565b90509250925092565b60006020808352835180602085015260005b818110156106b457858101830151858201604001528201610698565b506000604082860101526040601f19601f830116850101925050509291505056fea26469706673582212204d01cacb98096790d5d8b25367b481d00170636c34242df7407f8d52c2ac8a1064736f6c63430008180033","linkReferences":{}},"methodIdentifiers":{"getEthSignedMessageHash(bytes32)":"fa540801","getMessageHash(bytes32,address,uint32)":"fb5c8f0b","verify(bytes32,address,uint32,address,bytes)":"1984979a"},"id":110}