{"abi":[{"type":"function","name":"getEthSignedMessageHash","inputs":[{"name":"messageHash","type":"bytes32","internalType":"bytes32"}],"outputs":[{"name":"","type":"bytes32","internalType":"bytes32"}],"stateMutability":"pure"},{"type":"function","name":"getMessageHash","inputs":[{"name":"gameId","type":"bytes32","internalType":"bytes32"},{"name":"player","type":"address","internalType":"address"},{"name":"solutionIndex","type":"uint32","internalType":"uint32"}],"outputs":[{"name":"","type":"bytes32","internalType":"bytes32"}],"stateMutability":"pure"},{"type":"function","name":"verify","inputs":[{"name":"gameId","type":"bytes32","internalType":"bytes32"},{"name":"player","type":"address","internalType":"address"},{"name":"solutionIndex","type":"uint32","internalType":"uint32"},{"name":"puzzleMaster","type":"address","internalType":"address"},{"name":"puzzleMasterSignature","type":"bytes","internalType":"bytes"}],"outputs":[{"name":"","type":"bool","internalType":"bool"}],"stateMutability":"pure"}],"bytecode":{"object":"0x61056161003a600b82828239805160001a60731461002d57634e487b7160e01b600052600060045260246000fd5b30600052607381538281f3fe730000000000000000000000000000000000000000301460806040526004361061004b5760003560e01c80631984979a14610050578063fa54080114610078578063fb5c8f0b146100e7575b600080fd5b61006361005e3660046103e9565b610174565b60405190151581526020015b60405180910390f35b6100d96100863660046104d6565b6040517f19457468657265756d205369676e6564204d6573736167653a0a3332000000006020820152603c8101829052600090605c01604051602081830303815290604052805190602001209050919050565b60405190815260200161006f565b6100d96100f53660046104ef565b6040805160208082019590955260609390931b7fffffffffffffffffffffffffffffffffffffffff000000000000000000000000168382015260e09190911b7fffffffff000000000000000000000000000000000000000000000000000000001660548301528051603881840301815260589092019052805191012090565b604080516020808201889052606087901b7fffffffffffffffffffffffffffffffffffffffff000000000000000000000000168284015260e086901b7fffffffff00000000000000000000000000000000000000000000000000000000166054830152825160388184030181526058830184528051908201207f19457468657265756d205369676e6564204d6573736167653a0a333200000000607884015260948084018290528451808503909101815260b49093019093528151910120600091906000610242828661026c565b73ffffffffffffffffffffffffffffffffffffffff90811690871614935050505095945050505050565b60008060008061027b856102eb565b6040805160008152602081018083528b905260ff8316918101919091526060810184905260808101839052929550909350915060019060a0016020604051602081039080840390855afa1580156102d6573d6000803e3d6000fd5b5050604051601f190151979650505050505050565b6000806000835160411461035f576040517f08c379a000000000000000000000000000000000000000000000000000000000815260206004820152601860248201527f696e76616c6964207369676e6174757265206c656e6774680000000000000000604482015260640160405180910390fd5b50505060208101516040820151606090920151909260009190911a90565b803573ffffffffffffffffffffffffffffffffffffffff811681146103a157600080fd5b919050565b803563ffffffff811681146103a157600080fd5b7f4e487b7100000000000000000000000000000000000000000000000000000000600052604160045260246000fd5b600080600080600060a0868803121561040157600080fd5b853594506104116020870161037d565b935061041f604087016103a6565b925061042d6060870161037d565b9150608086013567ffffffffffffffff8082111561044a57600080fd5b818801915088601f83011261045e57600080fd5b813581811115610470576104706103ba565b604051601f8201601f19908116603f01168101908382118183101715610498576104986103ba565b816040528281528b60208487010111156104b157600080fd5b8260208601602083013760006020848301015280955050505050509295509295909350565b6000602082840312156104e857600080fd5b5035919050565b60008060006060848603121561050457600080fd5b833592506105146020850161037d565b9150610522604085016103a6565b9050925092509256fea2646970667358221220479800ef24b3db7519a9972c3f6634b56a3a270616560f59488d3253d216a09464736f6c63430008180033","linkReferences":{}},"methodIdentifiers":{"getEthSignedMessageHash(bytes32)":"fa540801","getMessageHash(bytes32,address,uint32)":"fb5c8f0b","verify(bytes32,address,uint32,address,bytes)":"1984979a"},"id":100}