{"abi":[{"type":"function","name":"_msgSender","inputs":[],"outputs":[{"name":"sender","type":"address","internalType":"address"}],"stateMutability":"view"},{"type":"function","name":"_msgValue","inputs":[],"outputs":[{"name":"value","type":"uint256","internalType":"uint256"}],"stateMutability":"pure"},{"type":"function","name":"_world","inputs":[],"outputs":[{"name":"","type":"address","internalType":"address"}],"stateMutability":"view"},{"type":"function","name":"getUniqueEntity","inputs":[],"outputs":[{"name":"","type":"bytes32","internalType":"bytes32"}],"stateMutability":"nonpayable"},{"type":"function","name":"supportsInterface","inputs":[{"name":"interfaceId","type":"bytes4","internalType":"bytes4"}],"outputs":[{"name":"","type":"bool","internalType":"bool"}],"stateMutability":"pure"},{"type":"event","name":"Store_SpliceStaticData","inputs":[{"name":"tableId","type":"bytes32","indexed":true,"internalType":"ResourceId"},{"name":"keyTuple","type":"bytes32[]","indexed":false,"internalType":"bytes32[]"},{"name":"start","type":"uint48","indexed":false,"internalType":"uint48"},{"name":"data","type":"bytes","indexed":false,"internalType":"bytes"}],"anonymous":false},{"type":"error","name":"Slice_OutOfBounds","inputs":[{"name":"data","type":"bytes","internalType":"bytes"},{"name":"start","type":"uint256","internalType":"uint256"},{"name":"end","type":"uint256","internalType":"uint256"}]}],"bytecode":{"object":"0x608060405234801561001057600080fd5b50611180806100206000396000f3fe608060405234801561001057600080fd5b50600436106100675760003560e01c806345ec93541161005057806345ec9354146100c1578063490923cd146100d6578063e1af802c146100de57600080fd5b806301ffc9a71461006c578063119df25f14610094575b600080fd5b61007f61007a366004610e3b565b6100e6565b60405190151581526020015b60405180910390f35b61009c61017f565b60405173ffffffffffffffffffffffffffffffffffffffff909116815260200161008b565b36601f1901355b60405190815260200161008b565b6100c861018e565b61009c6102d7565b60007fffffffff0000000000000000000000000000000000000000000000000000000082167fb5dee12700000000000000000000000000000000000000000000000000000000148061017957507fffffffff0000000000000000000000000000000000000000000000000000000082167f01ffc9a700000000000000000000000000000000000000000000000000000000145b92915050565b60006101896102e1565b905090565b604080517f746200000000000000000000000000000000000000000000000000000000000060208201527f756e69717565456e74697479000000000000000000000000000000000000000060228201527f7461626c650000000000000000000000000000000000000000000000000000006030820152600091829161022b910160405160208183030381529060405261022690610e7d565b610313565b610236906001610ed3565b604080517f746200000000000000000000000000000000000000000000000000000000000060208201527f756e69717565456e74697479000000000000000000000000000000000000000060228201527f7461626c6500000000000000000000000000000000000000000000000000000060308201529192506102d291016040516020818303038152906040526102cc90610e7d565b82610358565b919050565b60006101896103b4565b7fffffffffffffffffffffffffffffffffffffffffffffffffffffffffffffffcc36013560601c806103105750335b90565b6040805160008082526020820190925260006103508483837e200100200000000000000000000000000000000000000000000000000000006103be565b949350505050565b604080516000808252602082018352918101839052906103af90849083906060820160408051601f198184030181529190527e20010020000000000000000000000000000000000000000000000000000000610495565b505050565b6000610189610565565b6000806103c9610565565b90503073ffffffffffffffffffffffffffffffffffffffff8216036103fc576103f4868686866105ac565b915050610350565b6040517f8c364d5900000000000000000000000000000000000000000000000000000000815273ffffffffffffffffffffffffffffffffffffffff821690638c364d5990610454908990899089908990600401610f22565b602060405180830381865afa158015610471573d6000803e3d6000fd5b505050506040513d601f19601f820116820180604052508101906103f49190610f51565b600061049f610565565b90503073ffffffffffffffffffffffffffffffffffffffff8216036104d0576104cb86868686866105e2565b61055d565b6040517f390baae000000000000000000000000000000000000000000000000000000000815273ffffffffffffffffffffffffffffffffffffffff82169063390baae09061052a9089908990899089908990600401610fb0565b600060405180830381600087803b15801561054457600080fd5b505af1158015610558573d6000803e3d6000fd5b505050505b505050505050565b7f629a4c26e296b22a8e0856e9f6ecb2d1008d7e00081111962cd175fa7488e1755460009073ffffffffffffffffffffffffffffffffffffffff16806102d2573391505090565b60006105d96105bb86866105fe565b60ff858116601b0360080285901c166105d48587610654565b61068d565b95945050505050565b6105f785856105f18487610654565b856106de565b5050505050565b60008282604051602001610613929190610ff7565b60408051601f1981840301815291905280516020909101207f86425bff6b57326c7859e89024fe4f238ca327a1ae4a230180dd2f0e88aaa7d9189392505050565b600080805b8360ff168110156106855761067b60ff601b83900360080287901c1683610ed3565b9150600101610659565b509392505050565b6000602082106106b3576020820484019350602082816106af576106af611033565b0691505b508254600882021b602082900380841115610685576001850154600882021c82179150509392505050565b7f6f74000000000000000000000000000000000000000000000000000000000000847fffff000000000000000000000000000000000000000000000000000000000000160361076857837f8c0b5119d4cec7b284c6b1b39252a03d1e2f2d7451a5895562524c113bb952be84848460405161075b93929190611062565b60405180910390a261097d565b600061077485856105fe565b9050600061078186610983565b905060005b81518110156108565760008282815181106107a3576107a361109f565b602002602001015190506107cf6004826affffffffffffffffffffff1916610a0c90919063ffffffff16565b1561084d576040517f964f667d000000000000000000000000000000000000000000000000000000008152606082901c9063964f667d9061081a908b908b908b908b906004016110ce565b600060405180830381600087803b15801561083457600080fd5b505af1158015610848573d6000803e3d6000fd5b505050505b50600101610786565b50857f8c0b5119d4cec7b284c6b1b39252a03d1e2f2d7451a5895562524c113bb952be86868660405161088b93929190611062565b60405180910390a26108a6828565ffffffffffff1685610a2a565b60005b81518110156109795760008282815181106108c6576108c661109f565b602002602001015190506108f26008826affffffffffffffffffffff1916610a0c90919063ffffffff16565b15610970576040517fa8ba8721000000000000000000000000000000000000000000000000000000008152606082901c9063a8ba87219061093d908b908b908b908b906004016110ce565b600060405180830381600087803b15801561095757600080fd5b505af115801561096b573d6000803e3d6000fd5b505050505b506001016108a9565b5050505b50505050565b604080516001808252818301909252606091600091906020808301908036833701905050905082816000815181106109bd576109bd61109f565b602090810291909101015260006109f57f746273746f726500000000000000000053746f7265486f6f6b730000000000008383610a40565b9050610350610a078260008451610a7a565b610b11565b60008160ff1682610a1d8560581c90565b1660ff1614905092915050565b6103af83838351610a3b8560200190565b610b29565b6060610350610a50858585610be8565b6000610a7585610a608989610c68565b9060ff166028026038011c64ffffffffff1690565b610c7b565b600081831180610a8a5750835182115b15610ad0578383836040517f23230fa3000000000000000000000000000000000000000000000000000000008152600401610ac793929190611112565b60405180910390fd5b60208401610ade8482610ed3565b90506000610aec8585611137565b6fffffffffffffffffffffffffffffffff1660809290921b9190911795945050505050565b60606000610b228360156000610c9e565b9392505050565b8215610ba35760208310610b5357602083048401935060208381610b4f57610b4f611033565b0692505b8215610ba35760208390036000600019600885021c1990506008850281811c91508351811c9050811987541682821617875550818411610b9457505061097d565b50600194909401939182900391015b5b60208210610bc55780518455600190930192601f1990910190602001610ba4565b811561097d576000600019600884021c8554835182191691161785555050505050565b60008383604051602001610bfd929190610ff7565b604051602081830303815290604052805190602001208260f81b7effffffffffffffffffffffffffffffffffffffffffffffffffffffffffffff19167f3b4102da22e32d82fc925482184f16c09fd4281692720b87d124aef6da48a0f1181860001c90509392505050565b6000610b22610c778484610d19565b5490565b60405160208101601f19603f848401011660405282825261068585858584610d6f565b60606000610cac8560801c90565b90506fffffffffffffffffffffffffffffffff85166000858281610cd257610cd2611033565b04905060405193506020840160208202810160405281855260005b82811015610d0d578451871c825293870193602090910190600101610ced565b50505050509392505050565b60008282604051602001610d2e929190610ff7565b60408051601f1981840301815291905280516020909101207f14e2fcc58e58e68ec7edc30c8d50dccc3ce2714a623ec81f46b6a63922d76569189392505050565b8215610df65760208310610d9957602083048401935060208381610d9557610d95611033565b0692505b8215610df6576020839003600081841015610dbc5750600019600884021c610dc6565b50600019600882021c5b8554600886021b818451168219821617845250818411610de757505061097d565b50600194909401939182900391015b5b60208210610e185783548152600190930192601f1990910190602001610df7565b811561097d576000600019600884021c8251865482191691161782525050505050565b600060208284031215610e4d57600080fd5b81357fffffffff0000000000000000000000000000000000000000000000000000000081168114610b2257600080fd5b80516020808301519190811015610e9e576000198160200360031b1b821691505b50919050565b7f4e487b7100000000000000000000000000000000000000000000000000000000600052601160045260246000fd5b8082018082111561017957610179610ea4565b60008151808452602080850194506020840160005b83811015610f1757815187529582019590820190600101610efb565b509495945050505050565b848152608060208201526000610f3b6080830186610ee6565b60ff949094166040830152506060015292915050565b600060208284031215610f6357600080fd5b5051919050565b6000815180845260005b81811015610f9057602081850181015186830182015201610f74565b506000602082860101526020601f19601f83011685010191505092915050565b85815260a060208201526000610fc960a0830187610ee6565b60ff861660408401528281036060840152610fe48186610f6a565b9150508260808301529695505050505050565b8281526000602080830184516020860160005b828110156110265781518452928401929084019060010161100a565b5091979650505050505050565b7f4e487b7100000000000000000000000000000000000000000000000000000000600052601260045260246000fd5b6060815260006110756060830186610ee6565b65ffffffffffff8516602084015282810360408401526110958185610f6a565b9695505050505050565b7f4e487b7100000000000000000000000000000000000000000000000000000000600052603260045260246000fd5b8481526080602082015260006110e76080830186610ee6565b65ffffffffffff8516604084015282810360608401526111078185610f6a565b979650505050505050565b6060815260006111256060830186610f6a565b60208301949094525060400152919050565b8181038181111561017957610179610ea456fea2646970667358221220ecb562ef8669c9ab92dede0903f00ab5c4adff4b0d74de3e3a0ed7dc95bccecf64736f6c63430008180033","linkReferences":{}},"methodIdentifiers":{"_msgSender()":"119df25f","_msgValue()":"45ec9354","_world()":"e1af802c","getUniqueEntity()":"490923cd","supportsInterface(bytes4)":"01ffc9a7"},"id":38}